{
  "contractName": "Government",
  "abi": [
    {
      "inputs": [],
      "stateMutability": "nonpayable",
      "type": "constructor"
    },
    {
      "anonymous": false,
      "inputs": [
        {
          "indexed": true,
          "internalType": "uint256",
          "name": "tenderId",
          "type": "uint256"
        },
        {
          "indexed": true,
          "internalType": "address",
          "name": "winner",
          "type": "address"
        },
        {
          "indexed": false,
          "internalType": "uint256",
          "name": "amount",
          "type": "uint256"
        }
      ],
      "name": "BidAccepted",
      "type": "event"
    },
    {
      "anonymous": false,
      "inputs": [
        {
          "indexed": true,
          "internalType": "uint256",
          "name": "tenderId",
          "type": "uint256"
        },
        {
          "indexed": true,
          "internalType": "address",
          "name": "bidder",
          "type": "address"
        },
        {
          "indexed": false,
          "internalType": "uint256",
          "name": "amount",
          "type": "uint256"
        }
      ],
      "name": "BidPlaced",
      "type": "event"
    },
    {
      "anonymous": false,
      "inputs": [
        {
          "indexed": true,
          "internalType": "uint256",
          "name": "id",
          "type": "uint256"
        }
      ],
      "name": "TenderClosed",
      "type": "event"
    },
    {
      "anonymous": false,
      "inputs": [
        {
          "indexed": true,
          "internalType": "uint256",
          "name": "id",
          "type": "uint256"
        },
        {
          "indexed": false,
          "internalType": "string",
          "name": "location",
          "type": "string"
        },
        {
          "indexed": false,
          "internalType": "uint256",
          "name": "deadline",
          "type": "uint256"
        }
      ],
      "name": "TenderCreated",
      "type": "event"
    },
    {
      "inputs": [
        {
          "internalType": "uint256",
          "name": "",
          "type": "uint256"
        },
        {
          "internalType": "address",
          "name": "",
          "type": "address"
        }
      ],
      "name": "bids",
      "outputs": [
        {
          "internalType": "uint256",
          "name": "",
          "type": "uint256"
        }
      ],
      "stateMutability": "view",
      "type": "function"
    },
    {
      "inputs": [],
      "name": "government",
      "outputs": [
        {
          "internalType": "address",
          "name": "",
          "type": "address"
        }
      ],
      "stateMutability": "view",
      "type": "function"
    },
    {
      "inputs": [],
      "name": "tenderCounter",
      "outputs": [
        {
          "internalType": "uint256",
          "name": "",
          "type": "uint256"
        }
      ],
      "stateMutability": "view",
      "type": "function"
    },
    {
      "inputs": [
        {
          "internalType": "uint256",
          "name": "",
          "type": "uint256"
        }
      ],
      "name": "tenders",
      "outputs": [
        {
          "internalType": "uint256",
          "name": "id",
          "type": "uint256"
        },
        {
          "internalType": "string",
          "name": "location",
          "type": "string"
        },
        {
          "internalType": "string",
          "name": "description",
          "type": "string"
        },
        {
          "internalType": "uint256",
          "name": "deadline",
          "type": "uint256"
        },
        {
          "internalType": "bool",
          "name": "isOpen",
          "type": "bool"
        },
        {
          "internalType": "address",
          "name": "winningBidder",
          "type": "address"
        },
        {
          "internalType": "uint256",
          "name": "winningBidAmount",
          "type": "uint256"
        }
      ],
      "stateMutability": "view",
      "type": "function"
    },
    {
      "inputs": [
        {
          "internalType": "string",
          "name": "_location",
          "type": "string"
        },
        {
          "internalType": "string",
          "name": "_description",
          "type": "string"
        },
        {
          "internalType": "uint256",
          "name": "_deadline",
          "type": "uint256"
        }
      ],
      "name": "createTender",
      "outputs": [],
      "stateMutability": "nonpayable",
      "type": "function"
    },
    {
      "inputs": [
        {
          "internalType": "uint256",
          "name": "_id",
          "type": "uint256"
        }
      ],
      "name": "closeTender",
      "outputs": [],
      "stateMutability": "nonpayable",
      "type": "function"
    },
    {
      "inputs": [],
      "name": "getActiveTenders",
      "outputs": [
        {
          "components": [
            {
              "internalType": "uint256",
              "name": "id",
              "type": "uint256"
            },
            {
              "internalType": "string",
              "name": "location",
              "type": "string"
            },
            {
              "internalType": "string",
              "name": "description",
              "type": "string"
            },
            {
              "internalType": "uint256",
              "name": "deadline",
              "type": "uint256"
            },
            {
              "internalType": "bool",
              "name": "isOpen",
              "type": "bool"
            },
            {
              "internalType": "address",
              "name": "winningBidder",
              "type": "address"
            },
            {
              "internalType": "uint256",
              "name": "winningBidAmount",
              "type": "uint256"
            }
          ],
          "internalType": "struct Government.Tender[]",
          "name": "",
          "type": "tuple[]"
        }
      ],
      "stateMutability": "view",
      "type": "function"
    }
  ],
  "bytecode": "0x608060405234801561001057600080fd5b50336000806101000a81548173ffffffffffffffffffffffffffffffffffffffff021916908373ffffffffffffffffffffffffffffffffffffffff160217905550611477806100606000396000f3fe608060405234801561001057600080fd5b506004361061007c5760003560e01c806330d2210c1161005b57806330d2210c146100d95780633f1ffcec146100f7578063465e1def14610127578063907dbc1d1461015d5761007c565b8062cda3da146100815780632672f5261461009d5780632ac6c785146100bb575b600080fd5b61009b60048036038101906100969190610ca1565b610179565b005b6100a5610322565b6040516100b29190611024565b60405180910390f35b6100c3610346565b6040516100d0919061103f565b60405180910390f35b6100e161069e565b6040516100ee9190611111565b60405180910390f35b610111600480360381019061010c9190610cca565b6106a4565b60405161011e9190611111565b60405180910390f35b610141600480360381019061013c9190610ca1565b6106c9565b604051610154979695949392919061112c565b60405180910390f35b61017760048036038101906101729190610c22565b610848565b005b60008054906101000a900473ffffffffffffffffffffffffffffffffffffffff1673ffffffffffffffffffffffffffffffffffffffff163373ffffffffffffffffffffffffffffffffffffffff1614610207576040517f08c379a00000000000000000000000000000000000000000000000000000000081526004016101fe906110f1565b60405180910390fd5b6002600082815260200190815260200160002060040160009054906101000a900460ff1661026a576040517f08c379a000000000000000000000000000000000000000000000000000000000815260040161026190611091565b60405180910390fd5b60026000828152602001908152602001600020600301544210156102c3576040517f08c379a00000000000000000000000000000000000000000000000000000000081526004016102ba906110b1565b60405180910390fd5b60006002600083815260200190815260200160002060040160006101000a81548160ff021916908315150217905550807feb8198b13f5862980cc6bb061e17c178e471a7bc05092d2bb1c97e8662ceca9b60405160405180910390a250565b60008054906101000a900473ffffffffffffffffffffffffffffffffffffffff1681565b6060600080600190505b60015481116103a4576002600082815260200190815260200160002060040160009054906101000a900460ff161561039157818061038d9061132c565b9250505b808061039c9061132c565b915050610350565b5060008167ffffffffffffffff8111156103e7577f4e487b7100000000000000000000000000000000000000000000000000000000600052604160045260246000fd5b60405190808252806020026020018201604052801561042057816020015b61040d610a98565b8152602001906001900390816104055790505b509050600080600190505b6001548111610694576002600082815260200190815260200160002060040160009054906101000a900460ff161561068157600260008281526020019081526020016000206040518060e001604052908160008201548152602001600182018054610495906112fa565b80601f01602080910402602001604051908101604052809291908181526020018280546104c1906112fa565b801561050e5780601f106104e35761010080835404028352916020019161050e565b820191906000526020600020905b8154815290600101906020018083116104f157829003601f168201915b50505050508152602001600282018054610527906112fa565b80601f0160208091040260200160405190810160405280929190818152602001828054610553906112fa565b80156105a05780601f10610575576101008083540402835291602001916105a0565b820191906000526020600020905b81548152906001019060200180831161058357829003601f168201915b50505050508152602001600382015481526020016004820160009054906101000a900460ff161515151581526020016004820160019054906101000a900473ffffffffffffffffffffffffffffffffffffffff1673ffffffffffffffffffffffffffffffffffffffff1673ffffffffffffffffffffffffffffffffffffffff168152602001600582015481525050838381518110610667577f4e487b7100000000000000000000000000000000000000000000000000000000600052603260045260246000fd5b6020026020010181905250818061067d9061132c565b9250505b808061068c9061132c565b91505061042b565b5081935050505090565b60015481565b6003602052816000526040600020602052806000526040600020600091509150505481565b60026020528060005260406000206000915090508060000154908060010180546106f2906112fa565b80601f016020809104026020016040519081016040528092919081815260200182805461071e906112fa565b801561076b5780601f106107405761010080835404028352916020019161076b565b820191906000526020600020905b81548152906001019060200180831161074e57829003601f168201915b505050505090806002018054610780906112fa565b80601f01602080910402602001604051908101604052809291908181526020018280546107ac906112fa565b80156107f95780601f106107ce576101008083540402835291602001916107f9565b820191906000526020600020905b8154815290600101906020018083116107dc57829003601f168201915b5050505050908060030154908060040160009054906101000a900460ff16908060040160019054906101000a900473ffffffffffffffffffffffffffffffffffffffff16908060050154905087565b60008054906101000a900473ffffffffffffffffffffffffffffffffffffffff1673ffffffffffffffffffffffffffffffffffffffff163373ffffffffffffffffffffffffffffffffffffffff16146108d6576040517f08c379a00000000000000000000000000000000000000000000000000000000081526004016108cd906110f1565b60405180910390fd5b428111610918576040517f08c379a000000000000000000000000000000000000000000000000000000000815260040161090f906110d1565b60405180910390fd5b6001600081548092919061092b9061132c565b91905055506040518060e001604052806001548152602001848152602001838152602001828152602001600115158152602001600073ffffffffffffffffffffffffffffffffffffffff16815260200160008152506002600060015481526020019081526020016000206000820151816000015560208201518160010190805190602001906109bb929190610aed565b5060408201518160020190805190602001906109d8929190610aed565b506060820151816003015560808201518160040160006101000a81548160ff02191690831515021790555060a08201518160040160016101000a81548173ffffffffffffffffffffffffffffffffffffffff021916908373ffffffffffffffffffffffffffffffffffffffff16021790555060c082015181600501559050506001547fe3264e09f5c48d11366432789be1c8c1e381f96116271dbff757066288b1a61b8483604051610a8b929190611061565b60405180910390a2505050565b6040518060e0016040528060008152602001606081526020016060815260200160008152602001600015158152602001600073ffffffffffffffffffffffffffffffffffffffff168152602001600081525090565b828054610af9906112fa565b90600052602060002090601f016020900481019282610b1b5760008555610b62565b82601f10610b3457805160ff1916838001178555610b62565b82800160010185558215610b62579182015b82811115610b61578251825591602001919060010190610b46565b5b509050610b6f9190610b73565b5090565b5b80821115610b8c576000816000905550600101610b74565b5090565b6000610ba3610b9e846111da565b6111a9565b905082815260208101848484011115610bbb57600080fd5b610bc68482856112b8565b509392505050565b600081359050610bdd81611413565b92915050565b600082601f830112610bf457600080fd5b8135610c04848260208601610b90565b91505092915050565b600081359050610c1c8161142a565b92915050565b600080600060608486031215610c3757600080fd5b600084013567ffffffffffffffff811115610c5157600080fd5b610c5d86828701610be3565b935050602084013567ffffffffffffffff811115610c7a57600080fd5b610c8686828701610be3565b9250506040610c9786828701610c0d565b9150509250925092565b600060208284031215610cb357600080fd5b6000610cc184828501610c0d565b91505092915050565b60008060408385031215610cdd57600080fd5b6000610ceb85828601610c0d565b9250506020610cfc85828601610bce565b9150509250929050565b6000610d128383610f63565b905092915050565b610d2381611270565b82525050565b610d3281611270565b82525050565b6000610d438261121a565b610d4d818561123d565b935083602082028501610d5f8561120a565b8060005b85811015610d9b5784840389528151610d7c8582610d06565b9450610d8783611230565b925060208a01995050600181019050610d63565b50829750879550505050505092915050565b610db681611282565b82525050565b610dc581611282565b82525050565b6000610dd682611225565b610de0818561124e565b9350610df08185602086016112c7565b610df981611402565b840191505092915050565b6000610e0f82611225565b610e19818561125f565b9350610e298185602086016112c7565b610e3281611402565b840191505092915050565b6000610e4a60158361125f565b91507f54656e64657220616c726561647920636c6f73656400000000000000000000006000830152602082019050919050565b6000610e8a60188361125f565b91507f446561646c696e65206e6f7420726561636865642079657400000000000000006000830152602082019050919050565b6000610eca601e8361125f565b91507f446561646c696e65206d75737420626520696e207468652066757475726500006000830152602082019050919050565b6000610f0a60278361125f565b91507f4f6e6c7920676f7665726e6d656e742063616e20706572666f726d207468697360008301527f20616374696f6e000000000000000000000000000000000000000000000000006020830152604082019050919050565b600060e083016000830151610f7b6000860182611006565b5060208301518482036020860152610f938282610dcb565b91505060408301518482036040860152610fad8282610dcb565b9150506060830151610fc26060860182611006565b506080830151610fd56080860182610dad565b5060a0830151610fe860a0860182610d1a565b5060c0830151610ffb60c0860182611006565b508091505092915050565b61100f816112ae565b82525050565b61101e816112ae565b82525050565b60006020820190506110396000830184610d29565b92915050565b600060208201905081810360008301526110598184610d38565b905092915050565b6000604082019050818103600083015261107b8185610e04565b905061108a6020830184611015565b9392505050565b600060208201905081810360008301526110aa81610e3d565b9050919050565b600060208201905081810360008301526110ca81610e7d565b9050919050565b600060208201905081810360008301526110ea81610ebd565b9050919050565b6000602082019050818103600083015261110a81610efd565b9050919050565b60006020820190506111266000830184611015565b92915050565b600060e082019050611141600083018a611015565b81810360208301526111538189610e04565b905081810360408301526111678188610e04565b90506111766060830187611015565b6111836080830186610dbc565b61119060a0830185610d29565b61119d60c0830184611015565b98975050505050505050565b6000604051905081810181811067ffffffffffffffff821117156111d0576111cf6113d3565b5b8060405250919050565b600067ffffffffffffffff8211156111f5576111f46113d3565b5b601f19601f8301169050602081019050919050565b6000819050602082019050919050565b600081519050919050565b600081519050919050565b6000602082019050919050565b600082825260208201905092915050565b600082825260208201905092915050565b600082825260208201905092915050565b600061127b8261128e565b9050919050565b60008115159050919050565b600073ffffffffffffffffffffffffffffffffffffffff82169050919050565b6000819050919050565b82818337600083830152505050565b60005b838110156112e55780820151818401526020810190506112ca565b838111156112f4576000848401525b50505050565b6000600282049050600182168061131257607f821691505b60208210811415611326576113256113a4565b5b50919050565b6000611337826112ae565b91507fffffffffffffffffffffffffffffffffffffffffffffffffffffffffffffffff82141561136a57611369611375565b5b600182019050919050565b7f4e487b7100000000000000000000000000000000000000000000000000000000600052601160045260246000fd5b7f4e487b7100000000000000000000000000000000000000000000000000000000600052602260045260246000fd5b7f4e487b7100000000000000000000000000000000000000000000000000000000600052604160045260246000fd5b6000601f19601f8301169050919050565b61141c81611270565b811461142757600080fd5b50565b611433816112ae565b811461143e57600080fd5b5056fea2646970667358221220b6c68438cbfc01f8660e78e8eadae922b28ef9799f68f9bc81428a7b604fb20864736f6c63430008000033",
  "immutableReferences": {},
  "source": "// SPDX-License-Identifier: MIT\r\npragma solidity ^0.8.0;\r\n\r\ncontract Government {\r\n    address public government;\r\n    uint public tenderCounter;\r\n    \r\n    struct Tender {\r\n        uint id;\r\n        string location;\r\n        string description;\r\n        uint deadline;\r\n        bool isOpen;\r\n        address winningBidder;\r\n        uint winningBidAmount;\r\n    }\r\n    \r\n    mapping(uint => Tender) public tenders;\r\n    mapping(uint => mapping(address => uint)) public bids; \r\n    \r\n    event TenderCreated(uint indexed id, string location, uint deadline);\r\n    event TenderClosed(uint indexed id);\r\n    event BidPlaced(uint indexed tenderId, address indexed bidder, uint amount);\r\n    event BidAccepted(uint indexed tenderId, address indexed winner, uint amount);\r\n    \r\n    modifier onlyGovernment() {\r\n        require(msg.sender == government, \"Only government can perform this action\");\r\n        _;\r\n    }\r\n    \r\n    constructor() {\r\n        government = msg.sender;\r\n    }\r\n    \r\n    function createTender(\r\n        string memory _location,\r\n        string memory _description,\r\n        uint _deadline\r\n    ) public onlyGovernment {\r\n        require(_deadline > block.timestamp, \"Deadline must be in the future\");\r\n        \r\n        tenderCounter++;\r\n        tenders[tenderCounter] = Tender({\r\n            id: tenderCounter,\r\n            location: _location,\r\n            description: _description,\r\n            deadline: _deadline,\r\n            isOpen: true,\r\n            winningBidder: address(0),\r\n            winningBidAmount: 0\r\n        });\r\n        \r\n        emit TenderCreated(tenderCounter, _location, _deadline);\r\n    }\r\n    \r\n    function closeTender(uint _id) public onlyGovernment {\r\n        require(tenders[_id].isOpen, \"Tender already closed\");\r\n        require(block.timestamp >= tenders[_id].deadline, \"Deadline not reached yet\");\r\n        \r\n        tenders[_id].isOpen = false;\r\n        emit TenderClosed(_id);\r\n    }\r\n    \r\n   \r\n    function getActiveTenders() public view returns (Tender[] memory) {\r\n        uint count = 0;\r\n        for (uint i = 1; i <= tenderCounter; i++) {\r\n            if (tenders[i].isOpen) {\r\n                count++;\r\n            }\r\n        }\r\n        \r\n        Tender[] memory activeTenders = new Tender[](count);\r\n        uint index = 0;\r\n        for (uint i = 1; i <= tenderCounter; i++) {\r\n            if (tenders[i].isOpen) {\r\n                activeTenders[index] = tenders[i];\r\n                index++;\r\n            }\r\n        }\r\n        \r\n        return activeTenders;\r\n    }\r\n    }",
  "sourcePath": "C:\\Users\\msi\\app_drone\\contracts\\Government.sol",
  "compiler": {
    "name": "solc",
    "version": "0.8.0+commit.c7dfd78e.Emscripten.clang"
  },
  "schemaVersion": "3.4.16",
  "updatedAt": "2025-04-29T16:57:17.176Z",
  "devdoc": {
    "kind": "dev",
    "methods": {},
    "version": 1
  },
  "userdoc": {
    "kind": "user",
    "methods": {},
    "version": 1
  }
}