{
  "contractName": "AutoSimulated",
  "abi": [
    {
      "anonymous": false,
      "inputs": [
        {
          "indexed": false,
          "internalType": "uint256",
          "name": "timestamp",
          "type": "uint256"
        },
        {
          "indexed": false,
          "internalType": "uint256",
          "name": "cow",
          "type": "uint256"
        }
      ],
      "name": "DataAdded",
      "type": "event"
    },
    {
      "inputs": [
        {
          "internalType": "uint256",
          "name": "",
          "type": "uint256"
        }
      ],
      "name": "dataHistory",
      "outputs": [
        {
          "internalType": "uint256",
          "name": "timestamp",
          "type": "uint256"
        },
        {
          "internalType": "uint256",
          "name": "cow",
          "type": "uint256"
        },
        {
          "internalType": "int256",
          "name": "IN_ALLEYS",
          "type": "int256"
        },
        {
          "internalType": "int256",
          "name": "REST",
          "type": "int256"
        },
        {
          "internalType": "int256",
          "name": "EAT",
          "type": "int256"
        },
        {
          "internalType": "int256",
          "name": "ACTIVITY_LEVEL",
          "type": "int256"
        },
        {
          "internalType": "string",
          "name": "LPS",
          "type": "string"
        },
        {
          "internalType": "int256",
          "name": "disturbance",
          "type": "int256"
        }
      ],
      "stateMutability": "view",
      "type": "function"
    },
    {
      "inputs": [
        {
          "internalType": "uint256",
          "name": "",
          "type": "uint256"
        }
      ],
      "name": "viewedData",
      "outputs": [
        {
          "internalType": "bool",
          "name": "",
          "type": "bool"
        }
      ],
      "stateMutability": "view",
      "type": "function"
    },
    {
      "inputs": [
        {
          "internalType": "uint256",
          "name": "_cow",
          "type": "uint256"
        },
        {
          "internalType": "int256",
          "name": "_IN_ALLEYS",
          "type": "int256"
        },
        {
          "internalType": "int256",
          "name": "_REST",
          "type": "int256"
        },
        {
          "internalType": "int256",
          "name": "_EAT",
          "type": "int256"
        },
        {
          "internalType": "int256",
          "name": "_ACTIVITY_LEVEL",
          "type": "int256"
        },
        {
          "internalType": "string",
          "name": "_LPS",
          "type": "string"
        },
        {
          "internalType": "int256",
          "name": "_disturbance",
          "type": "int256"
        }
      ],
      "name": "addData",
      "outputs": [],
      "stateMutability": "nonpayable",
      "type": "function"
    },
    {
      "inputs": [],
      "name": "getLastData",
      "outputs": [
        {
          "components": [
            {
              "internalType": "uint256",
              "name": "timestamp",
              "type": "uint256"
            },
            {
              "internalType": "uint256",
              "name": "cow",
              "type": "uint256"
            },
            {
              "internalType": "int256",
              "name": "IN_ALLEYS",
              "type": "int256"
            },
            {
              "internalType": "int256",
              "name": "REST",
              "type": "int256"
            },
            {
              "internalType": "int256",
              "name": "EAT",
              "type": "int256"
            },
            {
              "internalType": "int256",
              "name": "ACTIVITY_LEVEL",
              "type": "int256"
            },
            {
              "internalType": "string",
              "name": "LPS",
              "type": "string"
            },
            {
              "internalType": "int256",
              "name": "disturbance",
              "type": "int256"
            }
          ],
          "internalType": "struct AutoSimulated.AnimalData",
          "name": "",
          "type": "tuple"
        }
      ],
      "stateMutability": "view",
      "type": "function"
    },
    {
      "inputs": [],
      "name": "getDataLength",
      "outputs": [
        {
          "internalType": "uint256",
          "name": "",
          "type": "uint256"
        }
      ],
      "stateMutability": "view",
      "type": "function"
    },
    {
      "inputs": [
        {
          "internalType": "uint256",
          "name": "index",
          "type": "uint256"
        }
      ],
      "name": "getDataAt",
      "outputs": [
        {
          "internalType": "uint256",
          "name": "timestamp",
          "type": "uint256"
        },
        {
          "internalType": "uint256",
          "name": "cow",
          "type": "uint256"
        },
        {
          "internalType": "int256",
          "name": "IN_ALLEYS",
          "type": "int256"
        },
        {
          "internalType": "int256",
          "name": "REST",
          "type": "int256"
        },
        {
          "internalType": "int256",
          "name": "EAT",
          "type": "int256"
        },
        {
          "internalType": "int256",
          "name": "ACTIVITY_LEVEL",
          "type": "int256"
        },
        {
          "internalType": "string",
          "name": "LPS",
          "type": "string"
        },
        {
          "internalType": "int256",
          "name": "disturbance",
          "type": "int256"
        }
      ],
      "stateMutability": "view",
      "type": "function"
    },
    {
      "inputs": [
        {
          "internalType": "uint256",
          "name": "index",
          "type": "uint256"
        }
      ],
      "name": "markAsViewed",
      "outputs": [],
      "stateMutability": "nonpayable",
      "type": "function"
    }
  ],
  "bytecode": "0x608060405234801561001057600080fd5b50610fc2806100206000396000f3fe608060405234801561001057600080fd5b506004361061007d5760003560e01c806363b19de41161005b57806363b19de4146100f357806374c1bc881461012357806393a249331461013f578063b0ac4c8c146101765761007d565b8063253acd961461008257806331ef84a11461009e5780633da76788146100d5575b600080fd5b61009c60048036038101906100979190610921565b610194565b005b6100b860048036038101906100b391906108f8565b6102a6565b6040516100cc989796959493929190610ce5565b60405180910390f35b6100dd61046c565b6040516100ea9190610ca1565b60405180910390f35b61010d600480360381019061010891906108f8565b610478565b60405161011a9190610c04565b60405180910390f35b61013d600480360381019061013891906108f8565b610498565b005b610159600480360381019061015491906108f8565b61050d565b60405161016d989796959493929190610ce5565b60405180910390f35b61017e6105ed565b60405161018b9190610c7f565b60405180910390f35b60006040518061010001604052804281526020018981526020018881526020018781526020018681526020018581526020018481526020018381525090506000819080600181540180825580915050600190039060005260206000209060080201600090919091909150600082015181600001556020820151816001015560408201518160020155606082015181600301556080820151816004015560a0820151816005015560c082015181600601908051906020019061025692919061077e565b5060e0820151816007015550507f6af68657efee74c78f42005b4473397e94941381451e7494bf1a03cb5131ea074289604051610294929190610cbc565b60405180910390a15050505050505050565b60008060008060008060606000808054905089106102f9576040517f08c379a00000000000000000000000000000000000000000000000000000000081526004016102f090610c5f565b60405180910390fd5b6000808a81548110610334577f4e487b7100000000000000000000000000000000000000000000000000000000600052603260045260246000fd5b90600052602060002090600802016040518061010001604052908160008201548152602001600182015481526020016002820154815260200160038201548152602001600482015481526020016005820154815260200160068201805461039a90610e8e565b80601f01602080910402602001604051908101604052809291908181526020018280546103c690610e8e565b80156104135780601f106103e857610100808354040283529160200191610413565b820191906000526020600020905b8154815290600101906020018083116103f657829003601f168201915b505050505081526020016007820154815250509050806000015181602001518260400151836060015184608001518560a001518660c001518760e001519850985098509850985098509850985050919395975091939597565b60008080549050905090565b60016020528060005260406000206000915054906101000a900460ff1681565b60008054905081106104df576040517f08c379a00000000000000000000000000000000000000000000000000000000081526004016104d690610c3f565b60405180910390fd5b600180600083815260200190815260200160002060006101000a81548160ff02191690831515021790555050565b6000818154811061051d57600080fd5b906000526020600020906008020160009150905080600001549080600101549080600201549080600301549080600401549080600501549080600601805461056490610e8e565b80601f016020809104026020016040519081016040528092919081815260200182805461059090610e8e565b80156105dd5780601f106105b2576101008083540402835291602001916105dd565b820191906000526020600020905b8154815290600101906020018083116105c057829003601f168201915b5050505050908060070154905088565b6105f5610804565b600080805490501161063c576040517f08c379a000000000000000000000000000000000000000000000000000000000815260040161063390610c1f565b60405180910390fd5b600060016000805490506106509190610df8565b81548110610687577f4e487b7100000000000000000000000000000000000000000000000000000000600052603260045260246000fd5b9060005260206000209060080201604051806101000160405290816000820154815260200160018201548152602001600282015481526020016003820154815260200160048201548152602001600582015481526020016006820180546106ed90610e8e565b80601f016020809104026020016040519081016040528092919081815260200182805461071990610e8e565b80156107665780601f1061073b57610100808354040283529160200191610766565b820191906000526020600020905b81548152906001019060200180831161074957829003601f168201915b50505050508152602001600782015481525050905090565b82805461078a90610e8e565b90600052602060002090601f0160209004810192826107ac57600085556107f3565b82601f106107c557805160ff19168380011785556107f3565b828001600101855582156107f3579182015b828111156107f25782518255916020019190600101906107d7565b5b5090506108009190610849565b5090565b60405180610100016040528060008152602001600081526020016000815260200160008152602001600081526020016000815260200160608152602001600081525090565b5b8082111561086257600081600090555060010161084a565b5090565b600061087961087484610d9b565b610d6a565b90508281526020810184848401111561089157600080fd5b61089c848285610e4c565b509392505050565b6000813590506108b381610f5e565b92915050565b600082601f8301126108ca57600080fd5b81356108da848260208601610866565b91505092915050565b6000813590506108f281610f75565b92915050565b60006020828403121561090a57600080fd5b6000610918848285016108e3565b91505092915050565b600080600080600080600060e0888a03121561093c57600080fd5b600061094a8a828b016108e3565b975050602061095b8a828b016108a4565b965050604061096c8a828b016108a4565b955050606061097d8a828b016108a4565b945050608061098e8a828b016108a4565b93505060a088013567ffffffffffffffff8111156109ab57600080fd5b6109b78a828b016108b9565b92505060c06109c88a828b016108a4565b91505092959891949750929550565b6109e081610e2c565b82525050565b6109ef81610e38565b82525050565b6109fe81610e38565b82525050565b6000610a0f82610dcb565b610a198185610dd6565b9350610a29818560208601610e5b565b610a3281610f4d565b840191505092915050565b6000610a4882610dcb565b610a528185610de7565b9350610a62818560208601610e5b565b610a6b81610f4d565b840191505092915050565b6000610a83600b83610de7565b91507f4e6f2064617461207965740000000000000000000000000000000000000000006000830152602082019050919050565b6000610ac3600d83610de7565b91507f496e76616c696420696e646578000000000000000000000000000000000000006000830152602082019050919050565b6000610b03601283610de7565b91507f496e646578206f7574206f662072616e676500000000000000000000000000006000830152602082019050919050565b600061010083016000830151610b4f6000860182610be6565b506020830151610b626020860182610be6565b506040830151610b7560408601826109e6565b506060830151610b8860608601826109e6565b506080830151610b9b60808601826109e6565b5060a0830151610bae60a08601826109e6565b5060c083015184820360c0860152610bc68282610a04565b91505060e0830151610bdb60e08601826109e6565b508091505092915050565b610bef81610e42565b82525050565b610bfe81610e42565b82525050565b6000602082019050610c1960008301846109d7565b92915050565b60006020820190508181036000830152610c3881610a76565b9050919050565b60006020820190508181036000830152610c5881610ab6565b9050919050565b60006020820190508181036000830152610c7881610af6565b9050919050565b60006020820190508181036000830152610c998184610b36565b905092915050565b6000602082019050610cb66000830184610bf5565b92915050565b6000604082019050610cd16000830185610bf5565b610cde6020830184610bf5565b9392505050565b600061010082019050610cfb600083018b610bf5565b610d08602083018a610bf5565b610d1560408301896109f5565b610d2260608301886109f5565b610d2f60808301876109f5565b610d3c60a08301866109f5565b81810360c0830152610d4e8185610a3d565b9050610d5d60e08301846109f5565b9998505050505050505050565b6000604051905081810181811067ffffffffffffffff82111715610d9157610d90610f1e565b5b8060405250919050565b600067ffffffffffffffff821115610db657610db5610f1e565b5b601f19601f8301169050602081019050919050565b600081519050919050565b600082825260208201905092915050565b600082825260208201905092915050565b6000610e0382610e42565b9150610e0e83610e42565b925082821015610e2157610e20610ec0565b5b828203905092915050565b60008115159050919050565b6000819050919050565b6000819050919050565b82818337600083830152505050565b60005b83811015610e79578082015181840152602081019050610e5e565b83811115610e88576000848401525b50505050565b60006002820490506001821680610ea657607f821691505b60208210811415610eba57610eb9610eef565b5b50919050565b7f4e487b7100000000000000000000000000000000000000000000000000000000600052601160045260246000fd5b7f4e487b7100000000000000000000000000000000000000000000000000000000600052602260045260246000fd5b7f4e487b7100000000000000000000000000000000000000000000000000000000600052604160045260246000fd5b6000601f19601f8301169050919050565b610f6781610e38565b8114610f7257600080fd5b50565b610f7e81610e42565b8114610f8957600080fd5b5056fea2646970667358221220268b93dc4cfc57d412f0bcbbf75ffb76ac920c16bb1e0eea91021b2079278d9964736f6c63430008000033",
  "immutableReferences": {},
  "source": "// SPDX-License-Identifier: MIT\r\npragma solidity ^0.8.0;\r\n\r\ncontract AutoSimulated {\r\n    struct AnimalData {\r\n        uint256 timestamp;\r\n        uint256 cow;\r\n        int256 IN_ALLEYS;\r\n        int256 REST;\r\n        int256 EAT;\r\n        int256 ACTIVITY_LEVEL;\r\n        string LPS;\r\n        int256 disturbance;\r\n    }\r\n\r\n    AnimalData[] public dataHistory;\r\n    mapping(uint => bool) public viewedData;\r\n\r\n    event DataAdded(uint256 timestamp, uint256 cow);\r\n\r\n    function addData(\r\n        uint256 _cow,\r\n        int256 _IN_ALLEYS,\r\n        int256 _REST,\r\n        int256 _EAT,\r\n        int256 _ACTIVITY_LEVEL,\r\n        string memory _LPS,\r\n        int256 _disturbance\r\n    ) public {\r\n        AnimalData memory data = AnimalData({\r\n            timestamp: block.timestamp,\r\n            cow: _cow,\r\n            IN_ALLEYS: _IN_ALLEYS,\r\n            REST: _REST,\r\n            EAT: _EAT,\r\n            ACTIVITY_LEVEL: _ACTIVITY_LEVEL,\r\n            LPS: _LPS,\r\n            disturbance: _disturbance\r\n        });\r\n\r\n        dataHistory.push(data);\r\n        emit DataAdded(block.timestamp, _cow);\r\n    }\r\n\r\n    function getLastData() public view returns (AnimalData memory) {\r\n        require(dataHistory.length > 0, \"No data yet\");\r\n        return dataHistory[dataHistory.length - 1];\r\n    }\r\n\r\n    function getDataLength() public view returns (uint256) {\r\n        return dataHistory.length;\r\n    }\r\n\r\n    function getDataAt(uint index) public view returns (\r\n        uint256 timestamp,\r\n        uint256 cow,\r\n        int256 IN_ALLEYS,\r\n        int256 REST,\r\n        int256 EAT,\r\n        int256 ACTIVITY_LEVEL,\r\n        string memory LPS,\r\n        int256 disturbance\r\n    ) {\r\n        require(index < dataHistory.length, \"Index out of range\");\r\n        AnimalData memory data = dataHistory[index];\r\n        return (\r\n            data.timestamp,\r\n            data.cow,\r\n            data.IN_ALLEYS,\r\n            data.REST,\r\n            data.EAT,\r\n            data.ACTIVITY_LEVEL,\r\n            data.LPS,\r\n            data.disturbance\r\n        );\r\n    }\r\n\r\n    function markAsViewed(uint index) public {\r\n        require(index < dataHistory.length, \"Invalid index\");\r\n        viewedData[index] = true;\r\n    }\r\n}\r\n",
  "sourcePath": "C:\\Users\\msi\\app_drone\\contracts\\AutoSimulated.sol",
  "compiler": {
    "name": "solc",
    "version": "0.8.0+commit.c7dfd78e.Emscripten.clang"
  },
  "schemaVersion": "3.4.16",
  "updatedAt": "2025-05-07T16:00:08.719Z",
  "devdoc": {
    "kind": "dev",
    "methods": {},
    "version": 1
  },
  "userdoc": {
    "kind": "user",
    "methods": {},
    "version": 1
  }
}