{
  "contractName": "DroneOperator",
  "abi": [
    {
      "inputs": [
        {
          "internalType": "address",
          "name": "_governmentContract",
          "type": "address"
        }
      ],
      "stateMutability": "nonpayable",
      "type": "constructor"
    },
    {
      "anonymous": false,
      "inputs": [
        {
          "indexed": true,
          "internalType": "uint256",
          "name": "tenderId",
          "type": "uint256"
        },
        {
          "indexed": true,
          "internalType": "address",
          "name": "operator",
          "type": "address"
        },
        {
          "indexed": false,
          "internalType": "uint256",
          "name": "amount",
          "type": "uint256"
        }
      ],
      "name": "BidSubmitted",
      "type": "event"
    },
    {
      "anonymous": false,
      "inputs": [
        {
          "indexed": true,
          "internalType": "uint256",
          "name": "tenderId",
          "type": "uint256"
        },
        {
          "indexed": true,
          "internalType": "address",
          "name": "operator",
          "type": "address"
        }
      ],
      "name": "MissionAssigned",
      "type": "event"
    },
    {
      "anonymous": false,
      "inputs": [
        {
          "indexed": true,
          "internalType": "uint256",
          "name": "tenderId",
          "type": "uint256"
        },
        {
          "indexed": true,
          "internalType": "address",
          "name": "operator",
          "type": "address"
        }
      ],
      "name": "MissionMarkedCompleted",
      "type": "event"
    },
    {
      "anonymous": false,
      "inputs": [
        {
          "indexed": true,
          "internalType": "uint256",
          "name": "tenderId",
          "type": "uint256"
        },
        {
          "indexed": true,
          "internalType": "address",
          "name": "operator",
          "type": "address"
        },
        {
          "indexed": false,
          "internalType": "uint256",
          "name": "amount",
          "type": "uint256"
        }
      ],
      "name": "PaymentReleased",
      "type": "event"
    },
    {
      "inputs": [
        {
          "internalType": "address",
          "name": "",
          "type": "address"
        },
        {
          "internalType": "uint256",
          "name": "",
          "type": "uint256"
        }
      ],
      "name": "bidsByOperator",
      "outputs": [
        {
          "internalType": "uint256",
          "name": "tenderId",
          "type": "uint256"
        },
        {
          "internalType": "uint256",
          "name": "amount",
          "type": "uint256"
        },
        {
          "internalType": "address",
          "name": "operator",
          "type": "address"
        }
      ],
      "stateMutability": "view",
      "type": "function"
    },
    {
      "inputs": [
        {
          "internalType": "uint256",
          "name": "",
          "type": "uint256"
        },
        {
          "internalType": "uint256",
          "name": "",
          "type": "uint256"
        }
      ],
      "name": "bidsPerTender",
      "outputs": [
        {
          "internalType": "uint256",
          "name": "tenderId",
          "type": "uint256"
        },
        {
          "internalType": "uint256",
          "name": "amount",
          "type": "uint256"
        },
        {
          "internalType": "address",
          "name": "operator",
          "type": "address"
        }
      ],
      "stateMutability": "view",
      "type": "function"
    },
    {
      "inputs": [],
      "name": "government",
      "outputs": [
        {
          "internalType": "address",
          "name": "",
          "type": "address"
        }
      ],
      "stateMutability": "view",
      "type": "function"
    },
    {
      "inputs": [],
      "name": "governmentContract",
      "outputs": [
        {
          "internalType": "contract IGovernment",
          "name": "",
          "type": "address"
        }
      ],
      "stateMutability": "view",
      "type": "function"
    },
    {
      "inputs": [
        {
          "internalType": "uint256",
          "name": "",
          "type": "uint256"
        },
        {
          "internalType": "address",
          "name": "",
          "type": "address"
        }
      ],
      "name": "hasBid",
      "outputs": [
        {
          "internalType": "bool",
          "name": "",
          "type": "bool"
        }
      ],
      "stateMutability": "view",
      "type": "function"
    },
    {
      "inputs": [
        {
          "internalType": "uint256",
          "name": "",
          "type": "uint256"
        }
      ],
      "name": "missions",
      "outputs": [
        {
          "internalType": "uint256",
          "name": "tenderId",
          "type": "uint256"
        },
        {
          "internalType": "address",
          "name": "operator",
          "type": "address"
        },
        {
          "internalType": "uint256",
          "name": "amount",
          "type": "uint256"
        },
        {
          "internalType": "bool",
          "name": "isCompleted",
          "type": "bool"
        },
        {
          "internalType": "bool",
          "name": "isPaid",
          "type": "bool"
        }
      ],
      "stateMutability": "view",
      "type": "function"
    },
    {
      "inputs": [
        {
          "internalType": "uint256",
          "name": "",
          "type": "uint256"
        }
      ],
      "name": "tenderHasMission",
      "outputs": [
        {
          "internalType": "bool",
          "name": "",
          "type": "bool"
        }
      ],
      "stateMutability": "view",
      "type": "function"
    },
    {
      "stateMutability": "payable",
      "type": "receive"
    },
    {
      "inputs": [
        {
          "internalType": "uint256",
          "name": "_tenderId",
          "type": "uint256"
        },
        {
          "internalType": "uint256",
          "name": "_amount",
          "type": "uint256"
        }
      ],
      "name": "submitBid",
      "outputs": [],
      "stateMutability": "nonpayable",
      "type": "function"
    },
    {
      "inputs": [],
      "name": "getMyBids",
      "outputs": [
        {
          "components": [
            {
              "internalType": "uint256",
              "name": "tenderId",
              "type": "uint256"
            },
            {
              "internalType": "uint256",
              "name": "amount",
              "type": "uint256"
            },
            {
              "internalType": "address",
              "name": "operator",
              "type": "address"
            }
          ],
          "internalType": "struct DroneOperator.Bid[]",
          "name": "",
          "type": "tuple[]"
        }
      ],
      "stateMutability": "view",
      "type": "function"
    },
    {
      "inputs": [
        {
          "internalType": "uint256",
          "name": "_tenderId",
          "type": "uint256"
        }
      ],
      "name": "getBidsForTender",
      "outputs": [
        {
          "components": [
            {
              "internalType": "uint256",
              "name": "tenderId",
              "type": "uint256"
            },
            {
              "internalType": "uint256",
              "name": "amount",
              "type": "uint256"
            },
            {
              "internalType": "address",
              "name": "operator",
              "type": "address"
            }
          ],
          "internalType": "struct DroneOperator.Bid[]",
          "name": "",
          "type": "tuple[]"
        }
      ],
      "stateMutability": "view",
      "type": "function"
    },
    {
      "inputs": [
        {
          "internalType": "uint256",
          "name": "_tenderId",
          "type": "uint256"
        },
        {
          "internalType": "address",
          "name": "_operator",
          "type": "address"
        }
      ],
      "name": "assignMission",
      "outputs": [],
      "stateMutability": "payable",
      "type": "function"
    },
    {
      "inputs": [
        {
          "internalType": "uint256",
          "name": "_tenderId",
          "type": "uint256"
        }
      ],
      "name": "markMissionCompleted",
      "outputs": [],
      "stateMutability": "nonpayable",
      "type": "function"
    },
    {
      "inputs": [
        {
          "internalType": "uint256",
          "name": "_tenderId",
          "type": "uint256"
        }
      ],
      "name": "releasePayment",
      "outputs": [],
      "stateMutability": "nonpayable",
      "type": "function"
    },
    {
      "inputs": [],
      "name": "getContractBalance",
      "outputs": [
        {
          "internalType": "uint256",
          "name": "",
          "type": "uint256"
        }
      ],
      "stateMutability": "view",
      "type": "function"
    },
    {
      "inputs": [
        {
          "internalType": "uint256",
          "name": "_tenderId",
          "type": "uint256"
        }
      ],
      "name": "getMissionDetails",
      "outputs": [
        {
          "internalType": "uint256",
          "name": "tenderId",
          "type": "uint256"
        },
        {
          "internalType": "address",
          "name": "operator",
          "type": "address"
        },
        {
          "internalType": "uint256",
          "name": "amount",
          "type": "uint256"
        },
        {
          "internalType": "bool",
          "name": "isCompleted",
          "type": "bool"
        },
        {
          "internalType": "bool",
          "name": "isPaid",
          "type": "bool"
        }
      ],
      "stateMutability": "view",
      "type": "function"
    }
  ],
  "bytecode": "0x60806040523480156200001157600080fd5b50604051620020b1380380620020b18339818101604052810190620000379190620000d6565b806000806101000a81548173ffffffffffffffffffffffffffffffffffffffff021916908373ffffffffffffffffffffffffffffffffffffffff16021790555033600160006101000a81548173ffffffffffffffffffffffffffffffffffffffff021916908373ffffffffffffffffffffffffffffffffffffffff1602179055505062000150565b600081519050620000d08162000136565b92915050565b600060208284031215620000e957600080fd5b6000620000f984828501620000bf565b91505092915050565b60006200010f8262000116565b9050919050565b600073ffffffffffffffffffffffffffffffffffffffff82169050919050565b620001418162000102565b81146200014d57600080fd5b50565b611f5180620001606000396000f3fe6080604052600436106100ec5760003560e01c8063449e88121161008a5780638840330f116100595780638840330f1461033457806388685cd914610375578063b199b3871461039e578063b821da1b146103c9576100f3565b8063449e8812146102785780636f9fb98a146102b5578063788077a7146102e057806379bdab0c1461030b576100f3565b80632672f526116100c65780632672f526146101b3578063267b51b3146101de5780632c8fe5261461021b578063402a31611461025c576100f3565b80630189e9fd146100f8578063145d85151461013557806316af0c2a14610174576100f3565b366100f357005b600080fd5b34801561010457600080fd5b5061011f600480360381019061011a9190611540565b6103f2565b60405161012c9190611adf565b60405180910390f35b34801561014157600080fd5b5061015c60048036038101906101579190611673565b610412565b60405161016b93929190611ca3565b60405180910390f35b34801561018057600080fd5b5061019b60048036038101906101969190611504565b610479565b6040516101aa93929190611ca3565b60405180910390f35b3480156101bf57600080fd5b506101c86104e0565b6040516101d59190611aa2565b60405180910390f35b3480156101ea57600080fd5b5061020560048036038101906102009190611540565b610506565b6040516102129190611abd565b60405180910390f35b34801561022757600080fd5b50610242600480360381019061023d9190611540565b6105e2565b604051610253959493929190611c50565b60405180910390f35b61027660048036038101906102719190611569565b610652565b005b34801561028457600080fd5b5061029f600480360381019061029a9190611569565b610b4c565b6040516102ac9190611adf565b60405180910390f35b3480156102c157600080fd5b506102ca610b7b565b6040516102d79190611c35565b60405180910390f35b3480156102ec57600080fd5b506102f5610b83565b6040516103029190611abd565b60405180910390f35b34801561031757600080fd5b50610332600480360381019061032d9190611540565b610c89565b005b34801561034057600080fd5b5061035b60048036038101906103569190611540565b610d05565b60405161036c959493929190611c50565b60405180910390f35b34801561038157600080fd5b5061039c60048036038101906103979190611540565b610d8a565b005b3480156103aa57600080fd5b506103b3610f9e565b6040516103c09190611afa565b60405180910390f35b3480156103d557600080fd5b506103f060048036038101906103eb9190611673565b610fc2565b005b60066020528060005260406000206000915054906101000a900460ff1681565b6005602052816000526040600020818154811061042e57600080fd5b9060005260206000209060030201600091509150508060000154908060010154908060020160009054906101000a900473ffffffffffffffffffffffffffffffffffffffff16905083565b6004602052816000526040600020818154811061049557600080fd5b9060005260206000209060030201600091509150508060000154908060010154908060020160009054906101000a900473ffffffffffffffffffffffffffffffffffffffff16905083565b600160009054906101000a900473ffffffffffffffffffffffffffffffffffffffff1681565b606060056000838152602001908152602001600020805480602002602001604051908101604052809291908181526020016000905b828210156105d7578382906000526020600020906003020160405180606001604052908160008201548152602001600182015481526020016002820160009054906101000a900473ffffffffffffffffffffffffffffffffffffffff1673ffffffffffffffffffffffffffffffffffffffff1673ffffffffffffffffffffffffffffffffffffffff16815250508152602001906001019061053b565b505050509050919050565b60026020528060005260406000206000915090508060000154908060010160009054906101000a900473ffffffffffffffffffffffffffffffffffffffff16908060020154908060030160009054906101000a900460ff16908060030160019054906101000a900460ff16905085565b600160009054906101000a900473ffffffffffffffffffffffffffffffffffffffff1673ffffffffffffffffffffffffffffffffffffffff163373ffffffffffffffffffffffffffffffffffffffff16146106e2576040517f08c379a00000000000000000000000000000000000000000000000000000000081526004016106d990611bf5565b60405180910390fd5b6006600083815260200190815260200160002060009054906101000a900460ff1615610743576040517f08c379a000000000000000000000000000000000000000000000000000000000815260040161073a90611b15565b60405180910390fd5b6003600083815260200190815260200160002060008273ffffffffffffffffffffffffffffffffffffffff1673ffffffffffffffffffffffffffffffffffffffff16815260200190815260200160002060009054906101000a900460ff166107e0576040517f08c379a00000000000000000000000000000000000000000000000000000000081526004016107d790611b35565b60405180910390fd5b60008060056000858152602001908152602001600020805480602002602001604051908101604052809291908181526020016000905b828210156108b2578382906000526020600020906003020160405180606001604052908160008201548152602001600182015481526020016002820160009054906101000a900473ffffffffffffffffffffffffffffffffffffffff1673ffffffffffffffffffffffffffffffffffffffff1673ffffffffffffffffffffffffffffffffffffffff168152505081526020019060010190610816565b5050505090506000805b82518110156109a0578473ffffffffffffffffffffffffffffffffffffffff16838281518110610915577f4e487b7100000000000000000000000000000000000000000000000000000000600052603260045260246000fd5b60200260200101516040015173ffffffffffffffffffffffffffffffffffffffff16141561098d57828181518110610976577f4e487b7100000000000000000000000000000000000000000000000000000000600052603260045260246000fd5b6020026020010151602001519350600191506109a0565b808061099890611e2f565b9150506108bc565b50806109e1576040517f08c379a00000000000000000000000000000000000000000000000000000000081526004016109d890611c15565b60405180910390fd5b6040518060a001604052808681526020018573ffffffffffffffffffffffffffffffffffffffff16815260200184815260200160001515815260200160001515815250600260008781526020019081526020016000206000820151816000015560208201518160010160006101000a81548173ffffffffffffffffffffffffffffffffffffffff021916908373ffffffffffffffffffffffffffffffffffffffff1602179055506040820151816002015560608201518160030160006101000a81548160ff02191690831515021790555060808201518160030160016101000a81548160ff02191690831515021790555090505060016006600087815260200190815260200160002060006101000a81548160ff0219169083151502179055508373ffffffffffffffffffffffffffffffffffffffff16857fd002d89a09cf7d543ba5f8bce499f03e0980ab4c4233f7511becb599e74bdeff60405160405180910390a35050505050565b60036020528160005260406000206020528060005260406000206000915091509054906101000a900460ff1681565b600047905090565b6060600460003373ffffffffffffffffffffffffffffffffffffffff1673ffffffffffffffffffffffffffffffffffffffff168152602001908152602001600020805480602002602001604051908101604052809291908181526020016000905b82821015610c80578382906000526020600020906003020160405180606001604052908160008201548152602001600182015481526020016002820160009054906101000a900473ffffffffffffffffffffffffffffffffffffffff1673ffffffffffffffffffffffffffffffffffffffff1673ffffffffffffffffffffffffffffffffffffffff168152505081526020019060010190610be4565b50505050905090565b600060026000838152602001908152602001600020905060018160030160006101000a81548160ff0219169083151502179055503373ffffffffffffffffffffffffffffffffffffffff16827f877b0a9e38a529e8780e656c1898cd454908fdefbff1f5465d0f38f7137aa96260405160405180910390a35050565b60008060008060008060026000888152602001908152602001600020905080600001548160010160009054906101000a900473ffffffffffffffffffffffffffffffffffffffff1682600201548360030160009054906101000a900460ff168460030160019054906101000a900460ff16955095509550955095505091939590929450565b600160009054906101000a900473ffffffffffffffffffffffffffffffffffffffff1673ffffffffffffffffffffffffffffffffffffffff163373ffffffffffffffffffffffffffffffffffffffff1614610e1a576040517f08c379a0000000000000000000000000000000000000000000000000000000008152600401610e1190611bf5565b60405180910390fd5b600060026000838152602001908152602001600020905060018160030160016101000a81548160ff02191690831515021790555060008160010160009054906101000a900473ffffffffffffffffffffffffffffffffffffffff1673ffffffffffffffffffffffffffffffffffffffff168260020154604051610e9c90611a8d565b60006040518083038185875af1925050503d8060008114610ed9576040519150601f19603f3d011682016040523d82523d6000602084013e610ede565b606091505b5050905080610f22576040517f08c379a0000000000000000000000000000000000000000000000000000000008152600401610f1990611bb5565b60405180910390fd5b8160010160009054906101000a900473ffffffffffffffffffffffffffffffffffffffff1673ffffffffffffffffffffffffffffffffffffffff16837f21d71db5be59bb9fa133895586b7404307dd33fb93b16db09dc6f1d9d7d231b08460020154604051610f919190611c35565b60405180910390a3505050565b60008054906101000a900473ffffffffffffffffffffffffffffffffffffffff1681565b60008060008054906101000a900473ffffffffffffffffffffffffffffffffffffffff1673ffffffffffffffffffffffffffffffffffffffff1663465e1def856040518263ffffffff1660e01b815260040161101e9190611c35565b60006040518083038186803b15801561103657600080fd5b505afa15801561104a573d6000803e3d6000fd5b505050506040513d6000823e3d601f19601f8201168201806040525081019061107391906115a5565b505094509450505050806110bc576040517f08c379a00000000000000000000000000000000000000000000000000000000081526004016110b390611b95565b60405180910390fd5b8142106110fe576040517f08c379a00000000000000000000000000000000000000000000000000000000081526004016110f590611b75565b60405180910390fd5b60008311611141576040517f08c379a000000000000000000000000000000000000000000000000000000000815260040161113890611b55565b60405180910390fd5b6003600085815260200190815260200160002060003373ffffffffffffffffffffffffffffffffffffffff1673ffffffffffffffffffffffffffffffffffffffff16815260200190815260200160002060009054906101000a900460ff16156111df576040517f08c379a00000000000000000000000000000000000000000000000000000000081526004016111d690611bd5565b60405180910390fd5b60016003600086815260200190815260200160002060003373ffffffffffffffffffffffffffffffffffffffff1673ffffffffffffffffffffffffffffffffffffffff16815260200190815260200160002060006101000a81548160ff021916908315150217905550600060405180606001604052808681526020018581526020013373ffffffffffffffffffffffffffffffffffffffff168152509050600460003373ffffffffffffffffffffffffffffffffffffffff1673ffffffffffffffffffffffffffffffffffffffff168152602001908152602001600020819080600181540180825580915050600190039060005260206000209060030201600090919091909150600082015181600001556020820151816001015560408201518160020160006101000a81548173ffffffffffffffffffffffffffffffffffffffff021916908373ffffffffffffffffffffffffffffffffffffffff160217905550505060056000868152602001908152602001600020819080600181540180825580915050600190039060005260206000209060030201600090919091909150600082015181600001556020820151816001015560408201518160020160006101000a81548173ffffffffffffffffffffffffffffffffffffffff021916908373ffffffffffffffffffffffffffffffffffffffff16021790555050503373ffffffffffffffffffffffffffffffffffffffff16857f177554f051f4aa1f0d0310334854b429baeecdb5a96bc329a26fd0cb7c8a7be3866040516114249190611c35565b60405180910390a35050505050565b600061144661144184611d0b565b611cda565b90508281526020810184848401111561145e57600080fd5b611469848285611dfc565b509392505050565b60008135905061148081611ed6565b92915050565b60008151905061149581611ed6565b92915050565b6000815190506114aa81611eed565b92915050565b600082601f8301126114c157600080fd5b81516114d1848260208601611433565b91505092915050565b6000813590506114e981611f04565b92915050565b6000815190506114fe81611f04565b92915050565b6000806040838503121561151757600080fd5b600061152585828601611471565b9250506020611536858286016114da565b9150509250929050565b60006020828403121561155257600080fd5b6000611560848285016114da565b91505092915050565b6000806040838503121561157c57600080fd5b600061158a858286016114da565b925050602061159b85828601611471565b9150509250929050565b600080600080600080600060e0888a0312156115c057600080fd5b60006115ce8a828b016114ef565b975050602088015167ffffffffffffffff8111156115eb57600080fd5b6115f78a828b016114b0565b965050604088015167ffffffffffffffff81111561161457600080fd5b6116208a828b016114b0565b95505060606116318a828b016114ef565b94505060806116428a828b0161149b565b93505060a06116538a828b01611486565b92505060c06116648a828b016114ef565b91505092959891949750929550565b6000806040838503121561168657600080fd5b6000611694858286016114da565b92505060206116a5858286016114da565b9150509250929050565b60006116bb8383611a2d565b60608301905092915050565b6116d081611d90565b82525050565b6116df81611d90565b82525050565b60006116f082611d4b565b6116fa8185611d63565b935061170583611d3b565b8060005b8381101561173657815161171d88826116af565b975061172883611d56565b925050600181019050611709565b5085935050505092915050565b61174c81611da2565b82525050565b61175b81611dd8565b82525050565b600061176e601883611d7f565b91507f4d697373696f6e20616c72656164792061737369676e656400000000000000006000830152602082019050919050565b60006117ae602083611d7f565b91507f4f70657261746f7220686173206e6f74207375626d69747465642061206269646000830152602082019050919050565b60006117ee602483611d7f565b91507f42696420616d6f756e74206d7573742062652067726561746572207468616e2060008301527f7a65726f000000000000000000000000000000000000000000000000000000006020830152604082019050919050565b6000611854601383611d7f565b91507f446561646c696e652068617320706173736564000000000000000000000000006000830152602082019050919050565b6000611894601283611d7f565b91507f54656e646572206973206e6f74206f70656e00000000000000000000000000006000830152602082019050919050565b60006118d4601783611d7f565b91507f5061796d656e74207472616e73666572206661696c65640000000000000000006000830152602082019050919050565b6000611914600083611d74565b9150600082019050919050565b600061192e602583611d7f565b91507f416c7265616479207375626d69747465642062696420666f722074686973207460008301527f656e6465720000000000000000000000000000000000000000000000000000006020830152604082019050919050565b6000611994602783611d7f565b91507f4f6e6c7920676f7665726e6d656e742063616e20706572666f726d207468697360008301527f20616374696f6e000000000000000000000000000000000000000000000000006020830152604082019050919050565b60006119fa601a83611d7f565b91507f426964206e6f7420666f756e6420666f72206f70657261746f720000000000006000830152602082019050919050565b606082016000820151611a436000850182611a6f565b506020820151611a566020850182611a6f565b506040820151611a6960408501826116c7565b50505050565b611a7881611dce565b82525050565b611a8781611dce565b82525050565b6000611a9882611907565b9150819050919050565b6000602082019050611ab760008301846116d6565b92915050565b60006020820190508181036000830152611ad781846116e5565b905092915050565b6000602082019050611af46000830184611743565b92915050565b6000602082019050611b0f6000830184611752565b92915050565b60006020820190508181036000830152611b2e81611761565b9050919050565b60006020820190508181036000830152611b4e816117a1565b9050919050565b60006020820190508181036000830152611b6e816117e1565b9050919050565b60006020820190508181036000830152611b8e81611847565b9050919050565b60006020820190508181036000830152611bae81611887565b9050919050565b60006020820190508181036000830152611bce816118c7565b9050919050565b60006020820190508181036000830152611bee81611921565b9050919050565b60006020820190508181036000830152611c0e81611987565b9050919050565b60006020820190508181036000830152611c2e816119ed565b9050919050565b6000602082019050611c4a6000830184611a7e565b92915050565b600060a082019050611c656000830188611a7e565b611c7260208301876116d6565b611c7f6040830186611a7e565b611c8c6060830185611743565b611c996080830184611743565b9695505050505050565b6000606082019050611cb86000830186611a7e565b611cc56020830185611a7e565b611cd260408301846116d6565b949350505050565b6000604051905081810181811067ffffffffffffffff82111715611d0157611d00611ea7565b5b8060405250919050565b600067ffffffffffffffff821115611d2657611d25611ea7565b5b601f19601f8301169050602081019050919050565b6000819050602082019050919050565b600081519050919050565b6000602082019050919050565b600082825260208201905092915050565b600081905092915050565b600082825260208201905092915050565b6000611d9b82611dae565b9050919050565b60008115159050919050565b600073ffffffffffffffffffffffffffffffffffffffff82169050919050565b6000819050919050565b6000611de382611dea565b9050919050565b6000611df582611dae565b9050919050565b60005b83811015611e1a578082015181840152602081019050611dff565b83811115611e29576000848401525b50505050565b6000611e3a82611dce565b91507fffffffffffffffffffffffffffffffffffffffffffffffffffffffffffffffff821415611e6d57611e6c611e78565b5b600182019050919050565b7f4e487b7100000000000000000000000000000000000000000000000000000000600052601160045260246000fd5b7f4e487b7100000000000000000000000000000000000000000000000000000000600052604160045260246000fd5b611edf81611d90565b8114611eea57600080fd5b50565b611ef681611da2565b8114611f0157600080fd5b50565b611f0d81611dce565b8114611f1857600080fd5b5056fea26469706673582212200a366b50730fbd245e6bbfa4fa392a35fe4f5d673e4f7858293ca51a1354a13c64736f6c63430008000033",
  "immutableReferences": {},
  "source": "// SPDX-License-Identifier: MIT\r\npragma solidity ^0.8.0;\r\n\r\ninterface IGovernment {\r\n    function tenders(uint id) external view returns (\r\n        uint, string memory, string memory, uint, bool, address, uint\r\n    );\r\n}\r\n\r\ncontract DroneOperator {\r\n    IGovernment public governmentContract;\r\n    address public government;\r\n\r\n    struct Mission {\r\n        uint tenderId;\r\n        address operator;\r\n        uint amount;\r\n        bool isCompleted;\r\n        bool isPaid;\r\n    }\r\n\r\n    struct Bid {\r\n        uint tenderId;\r\n        uint amount;\r\n        address operator;\r\n    }\r\n\r\n    mapping(uint => Mission) public missions;\r\n    mapping(uint => mapping(address => bool)) public hasBid;\r\n    mapping(address => Bid[]) public bidsByOperator;\r\n    mapping(uint => Bid[]) public bidsPerTender;\r\n    mapping(uint => bool) public tenderHasMission;\r\n\r\n\r\n    event BidSubmitted(uint indexed tenderId, address indexed operator, uint amount);\r\n    event MissionMarkedCompleted(uint indexed tenderId, address indexed operator);\r\n    event PaymentReleased(uint indexed tenderId, address indexed operator, uint amount);\r\n    event MissionAssigned(uint indexed tenderId, address indexed operator);\r\n\r\n    \r\n    \r\n\r\n    modifier onlyGovernment() {\r\n        require(msg.sender == government, \"Only government can perform this action\");\r\n        _;\r\n    }\r\n\r\n    constructor(address _governmentContract) {\r\n        governmentContract = IGovernment(_governmentContract);\r\n        government = msg.sender;\r\n    }\r\n\r\n    function submitBid(uint _tenderId, uint _amount) external {\r\n        (, , , uint deadline, bool isOpen, ,) = governmentContract.tenders(_tenderId);\r\n        require(isOpen, \"Tender is not open\");\r\n        require(block.timestamp < deadline, \"Deadline has passed\");\r\n        require(_amount > 0, \"Bid amount must be greater than zero\");\r\n        require(!hasBid[_tenderId][msg.sender], \"Already submitted bid for this tender\");\r\n\r\n        hasBid[_tenderId][msg.sender] = true;\r\n        Bid memory newBid = Bid(_tenderId, _amount, msg.sender);\r\n        bidsByOperator[msg.sender].push(newBid);\r\n        bidsPerTender[_tenderId].push(newBid);\r\n\r\n        emit BidSubmitted(_tenderId, msg.sender, _amount);\r\n    }\r\n\r\n    function getMyBids() external view returns (Bid[] memory) {\r\n        return bidsByOperator[msg.sender];\r\n    }\r\n\r\n    function getBidsForTender(uint _tenderId) external view returns (Bid[] memory) {\r\n        return bidsPerTender[_tenderId];\r\n    }\r\n\r\n\r\nfunction assignMission(uint _tenderId, address _operator) external onlyGovernment payable {\r\n    require(!tenderHasMission[_tenderId], \"Mission already assigned\");\r\n    require(hasBid[_tenderId][_operator], \"Operator has not submitted a bid\");\r\n    uint bidAmount = 0;\r\n    Bid[] memory allBids = bidsPerTender[_tenderId];\r\n    bool found = false;\r\n    for (uint i = 0; i < allBids.length; i++) {\r\n        if (allBids[i].operator == _operator) {\r\n            bidAmount = allBids[i].amount;\r\n            found = true;\r\n            break;\r\n        }\r\n    }\r\n    require(found, \"Bid not found for operator\");\r\n\r\n    missions[_tenderId] = Mission({\r\n        tenderId: _tenderId,\r\n        operator: _operator,\r\n        amount: bidAmount,\r\n        isCompleted: false,\r\n        isPaid: false\r\n    });\r\n\r\n    tenderHasMission[_tenderId] = true;\r\n\r\n    emit MissionAssigned(_tenderId, _operator);\r\n}\r\n\r\n\r\n\r\nfunction markMissionCompleted(uint _tenderId) external {\r\n    Mission storage mission = missions[_tenderId];\r\n    mission.isCompleted = true;\r\n    \r\n    emit MissionMarkedCompleted(_tenderId, msg.sender);\r\n}\r\n\r\n\r\nfunction releasePayment(uint _tenderId) external onlyGovernment {\r\n    Mission storage mission = missions[_tenderId];\r\n    mission.isPaid = true;\r\n    (bool success, ) = mission.operator.call{value: mission.amount}(\"\");\r\n    require(success, \"Payment transfer failed\");\r\n    \r\n    emit PaymentReleased(_tenderId, mission.operator, mission.amount);\r\n}\r\n\r\nfunction getContractBalance() external view returns (uint) {\r\n    return address(this).balance;\r\n}\r\n\r\nfunction getMissionDetails(uint _tenderId) external view returns (\r\n    uint tenderId,\r\n    address operator,\r\n    uint amount,\r\n    bool isCompleted,\r\n    bool isPaid\r\n) {\r\n    Mission storage mission = missions[_tenderId];\r\n    return (\r\n        mission.tenderId,\r\n        mission.operator,\r\n        mission.amount,\r\n        mission.isCompleted,\r\n        mission.isPaid\r\n    );\r\n}\r\n\r\nreceive() external payable {}\r\n}",
  "sourcePath": "C:\\Users\\msi\\app_drone\\contracts\\DroneOperator.sol",
  "compiler": {
    "name": "solc",
    "version": "0.8.0+commit.c7dfd78e.Emscripten.clang"
  },
  "schemaVersion": "3.4.16",
  "updatedAt": "2025-05-07T16:00:08.724Z",
  "devdoc": {
    "kind": "dev",
    "methods": {},
    "version": 1
  },
  "userdoc": {
    "kind": "user",
    "methods": {},
    "version": 1
  }
}