{
  "contractName": "Government",
  "abi": [
    {
      "inputs": [],
      "stateMutability": "nonpayable",
      "type": "constructor"
    },
    {
      "anonymous": false,
      "inputs": [
        {
          "indexed": true,
          "internalType": "uint256",
          "name": "tenderId",
          "type": "uint256"
        },
        {
          "indexed": true,
          "internalType": "address",
          "name": "winner",
          "type": "address"
        },
        {
          "indexed": false,
          "internalType": "uint256",
          "name": "amount",
          "type": "uint256"
        }
      ],
      "name": "BidAccepted",
      "type": "event"
    },
    {
      "anonymous": false,
      "inputs": [
        {
          "indexed": true,
          "internalType": "uint256",
          "name": "tenderId",
          "type": "uint256"
        },
        {
          "indexed": true,
          "internalType": "address",
          "name": "bidder",
          "type": "address"
        },
        {
          "indexed": false,
          "internalType": "uint256",
          "name": "amount",
          "type": "uint256"
        }
      ],
      "name": "BidPlaced",
      "type": "event"
    },
    {
      "anonymous": false,
      "inputs": [
        {
          "indexed": true,
          "internalType": "uint256",
          "name": "id",
          "type": "uint256"
        }
      ],
      "name": "TenderClosed",
      "type": "event"
    },
    {
      "anonymous": false,
      "inputs": [
        {
          "indexed": true,
          "internalType": "uint256",
          "name": "id",
          "type": "uint256"
        },
        {
          "indexed": false,
          "internalType": "string",
          "name": "location",
          "type": "string"
        },
        {
          "indexed": false,
          "internalType": "uint256",
          "name": "deadline",
          "type": "uint256"
        }
      ],
      "name": "TenderCreated",
      "type": "event"
    },
    {
      "inputs": [],
      "name": "government",
      "outputs": [
        {
          "internalType": "address",
          "name": "",
          "type": "address"
        }
      ],
      "stateMutability": "view",
      "type": "function"
    },
    {
      "inputs": [],
      "name": "tenderCounter",
      "outputs": [
        {
          "internalType": "uint256",
          "name": "",
          "type": "uint256"
        }
      ],
      "stateMutability": "view",
      "type": "function"
    },
    {
      "inputs": [
        {
          "internalType": "uint256",
          "name": "",
          "type": "uint256"
        }
      ],
      "name": "tenders",
      "outputs": [
        {
          "internalType": "uint256",
          "name": "id",
          "type": "uint256"
        },
        {
          "internalType": "string",
          "name": "location",
          "type": "string"
        },
        {
          "internalType": "string",
          "name": "description",
          "type": "string"
        },
        {
          "internalType": "uint256",
          "name": "deadline",
          "type": "uint256"
        },
        {
          "internalType": "bool",
          "name": "isOpen",
          "type": "bool"
        },
        {
          "internalType": "address",
          "name": "winningBidder",
          "type": "address"
        },
        {
          "internalType": "uint256",
          "name": "winningBidAmount",
          "type": "uint256"
        }
      ],
      "stateMutability": "view",
      "type": "function"
    },
    {
      "inputs": [
        {
          "internalType": "string",
          "name": "_location",
          "type": "string"
        },
        {
          "internalType": "string",
          "name": "_description",
          "type": "string"
        },
        {
          "internalType": "uint256",
          "name": "_deadline",
          "type": "uint256"
        }
      ],
      "name": "createTender",
      "outputs": [],
      "stateMutability": "nonpayable",
      "type": "function"
    },
    {
      "inputs": [
        {
          "internalType": "uint256",
          "name": "_id",
          "type": "uint256"
        }
      ],
      "name": "closeTender",
      "outputs": [],
      "stateMutability": "nonpayable",
      "type": "function"
    },
    {
      "inputs": [],
      "name": "getActiveTenders",
      "outputs": [
        {
          "components": [
            {
              "internalType": "uint256",
              "name": "id",
              "type": "uint256"
            },
            {
              "internalType": "string",
              "name": "location",
              "type": "string"
            },
            {
              "internalType": "string",
              "name": "description",
              "type": "string"
            },
            {
              "internalType": "uint256",
              "name": "deadline",
              "type": "uint256"
            },
            {
              "internalType": "bool",
              "name": "isOpen",
              "type": "bool"
            },
            {
              "internalType": "address",
              "name": "winningBidder",
              "type": "address"
            },
            {
              "internalType": "uint256",
              "name": "winningBidAmount",
              "type": "uint256"
            }
          ],
          "internalType": "struct Government.Tender[]",
          "name": "",
          "type": "tuple[]"
        }
      ],
      "stateMutability": "view",
      "type": "function"
    }
  ],
  "bytecode": "0x608060405234801561001057600080fd5b50336000806101000a81548173ffffffffffffffffffffffffffffffffffffffff021916908373ffffffffffffffffffffffffffffffffffffffff16021790555061139f806100606000396000f3fe608060405234801561001057600080fd5b50600436106100615760003560e01c8062cda3da146100665780632672f526146100825780632ac6c785146100a057806330d2210c146100be578063465e1def146100dc578063907dbc1d14610112575b600080fd5b610080600480360381019061007b9190610c1c565b61012e565b005b61008a6102d7565b6040516100979190610f63565b60405180910390f35b6100a86102fb565b6040516100b59190610f7e565b60405180910390f35b6100c6610653565b6040516100d39190611050565b60405180910390f35b6100f660048036038101906100f19190610c1c565b610659565b604051610109979695949392919061106b565b60405180910390f35b61012c60048036038101906101279190610b9d565b6107d8565b005b60008054906101000a900473ffffffffffffffffffffffffffffffffffffffff1673ffffffffffffffffffffffffffffffffffffffff163373ffffffffffffffffffffffffffffffffffffffff16146101bc576040517f08c379a00000000000000000000000000000000000000000000000000000000081526004016101b390611030565b60405180910390fd5b6002600082815260200190815260200160002060040160009054906101000a900460ff1661021f576040517f08c379a000000000000000000000000000000000000000000000000000000000815260040161021690610fd0565b60405180910390fd5b6002600082815260200190815260200160002060030154421015610278576040517f08c379a000000000000000000000000000000000000000000000000000000000815260040161026f90610ff0565b60405180910390fd5b60006002600083815260200190815260200160002060040160006101000a81548160ff021916908315150217905550807feb8198b13f5862980cc6bb061e17c178e471a7bc05092d2bb1c97e8662ceca9b60405160405180910390a250565b60008054906101000a900473ffffffffffffffffffffffffffffffffffffffff1681565b6060600080600190505b6001548111610359576002600082815260200190815260200160002060040160009054906101000a900460ff16156103465781806103429061126b565b9250505b80806103519061126b565b915050610305565b5060008167ffffffffffffffff81111561039c577f4e487b7100000000000000000000000000000000000000000000000000000000600052604160045260246000fd5b6040519080825280602002602001820160405280156103d557816020015b6103c2610a28565b8152602001906001900390816103ba5790505b509050600080600190505b6001548111610649576002600082815260200190815260200160002060040160009054906101000a900460ff161561063657600260008281526020019081526020016000206040518060e00160405290816000820154815260200160018201805461044a90611239565b80601f016020809104026020016040519081016040528092919081815260200182805461047690611239565b80156104c35780601f10610498576101008083540402835291602001916104c3565b820191906000526020600020905b8154815290600101906020018083116104a657829003601f168201915b505050505081526020016002820180546104dc90611239565b80601f016020809104026020016040519081016040528092919081815260200182805461050890611239565b80156105555780601f1061052a57610100808354040283529160200191610555565b820191906000526020600020905b81548152906001019060200180831161053857829003601f168201915b50505050508152602001600382015481526020016004820160009054906101000a900460ff161515151581526020016004820160019054906101000a900473ffffffffffffffffffffffffffffffffffffffff1673ffffffffffffffffffffffffffffffffffffffff1673ffffffffffffffffffffffffffffffffffffffff16815260200160058201548152505083838151811061061c577f4e487b7100000000000000000000000000000000000000000000000000000000600052603260045260246000fd5b602002602001018190525081806106329061126b565b9250505b80806106419061126b565b9150506103e0565b5081935050505090565b60015481565b600260205280600052604060002060009150905080600001549080600101805461068290611239565b80601f01602080910402602001604051908101604052809291908181526020018280546106ae90611239565b80156106fb5780601f106106d0576101008083540402835291602001916106fb565b820191906000526020600020905b8154815290600101906020018083116106de57829003601f168201915b50505050509080600201805461071090611239565b80601f016020809104026020016040519081016040528092919081815260200182805461073c90611239565b80156107895780601f1061075e57610100808354040283529160200191610789565b820191906000526020600020905b81548152906001019060200180831161076c57829003601f168201915b5050505050908060030154908060040160009054906101000a900460ff16908060040160019054906101000a900473ffffffffffffffffffffffffffffffffffffffff16908060050154905087565b60008054906101000a900473ffffffffffffffffffffffffffffffffffffffff1673ffffffffffffffffffffffffffffffffffffffff163373ffffffffffffffffffffffffffffffffffffffff1614610866576040517f08c379a000000000000000000000000000000000000000000000000000000000815260040161085d90611030565b60405180910390fd5b4281116108a8576040517f08c379a000000000000000000000000000000000000000000000000000000000815260040161089f90611010565b60405180910390fd5b600160008154809291906108bb9061126b565b91905055506040518060e001604052806001548152602001848152602001838152602001828152602001600115158152602001600073ffffffffffffffffffffffffffffffffffffffff168152602001600081525060026000600154815260200190815260200160002060008201518160000155602082015181600101908051906020019061094b929190610a7d565b506040820151816002019080519060200190610968929190610a7d565b506060820151816003015560808201518160040160006101000a81548160ff02191690831515021790555060a08201518160040160016101000a81548173ffffffffffffffffffffffffffffffffffffffff021916908373ffffffffffffffffffffffffffffffffffffffff16021790555060c082015181600501559050506001547fe3264e09f5c48d11366432789be1c8c1e381f96116271dbff757066288b1a61b8483604051610a1b929190610fa0565b60405180910390a2505050565b6040518060e0016040528060008152602001606081526020016060815260200160008152602001600015158152602001600073ffffffffffffffffffffffffffffffffffffffff168152602001600081525090565b828054610a8990611239565b90600052602060002090601f016020900481019282610aab5760008555610af2565b82601f10610ac457805160ff1916838001178555610af2565b82800160010185558215610af2579182015b82811115610af1578251825591602001919060010190610ad6565b5b509050610aff9190610b03565b5090565b5b80821115610b1c576000816000905550600101610b04565b5090565b6000610b33610b2e84611119565b6110e8565b905082815260208101848484011115610b4b57600080fd5b610b568482856111f7565b509392505050565b600082601f830112610b6f57600080fd5b8135610b7f848260208601610b20565b91505092915050565b600081359050610b9781611352565b92915050565b600080600060608486031215610bb257600080fd5b600084013567ffffffffffffffff811115610bcc57600080fd5b610bd886828701610b5e565b935050602084013567ffffffffffffffff811115610bf557600080fd5b610c0186828701610b5e565b9250506040610c1286828701610b88565b9150509250925092565b600060208284031215610c2e57600080fd5b6000610c3c84828501610b88565b91505092915050565b6000610c518383610ea2565b905092915050565b610c62816111af565b82525050565b610c71816111af565b82525050565b6000610c8282611159565b610c8c818561117c565b935083602082028501610c9e85611149565b8060005b85811015610cda5784840389528151610cbb8582610c45565b9450610cc68361116f565b925060208a01995050600181019050610ca2565b50829750879550505050505092915050565b610cf5816111c1565b82525050565b610d04816111c1565b82525050565b6000610d1582611164565b610d1f818561118d565b9350610d2f818560208601611206565b610d3881611341565b840191505092915050565b6000610d4e82611164565b610d58818561119e565b9350610d68818560208601611206565b610d7181611341565b840191505092915050565b6000610d8960158361119e565b91507f54656e64657220616c726561647920636c6f73656400000000000000000000006000830152602082019050919050565b6000610dc960188361119e565b91507f446561646c696e65206e6f7420726561636865642079657400000000000000006000830152602082019050919050565b6000610e09601e8361119e565b91507f446561646c696e65206d75737420626520696e207468652066757475726500006000830152602082019050919050565b6000610e4960278361119e565b91507f4f6e6c7920676f7665726e6d656e742063616e20706572666f726d207468697360008301527f20616374696f6e000000000000000000000000000000000000000000000000006020830152604082019050919050565b600060e083016000830151610eba6000860182610f45565b5060208301518482036020860152610ed28282610d0a565b91505060408301518482036040860152610eec8282610d0a565b9150506060830151610f016060860182610f45565b506080830151610f146080860182610cec565b5060a0830151610f2760a0860182610c59565b5060c0830151610f3a60c0860182610f45565b508091505092915050565b610f4e816111ed565b82525050565b610f5d816111ed565b82525050565b6000602082019050610f786000830184610c68565b92915050565b60006020820190508181036000830152610f988184610c77565b905092915050565b60006040820190508181036000830152610fba8185610d43565b9050610fc96020830184610f54565b9392505050565b60006020820190508181036000830152610fe981610d7c565b9050919050565b6000602082019050818103600083015261100981610dbc565b9050919050565b6000602082019050818103600083015261102981610dfc565b9050919050565b6000602082019050818103600083015261104981610e3c565b9050919050565b60006020820190506110656000830184610f54565b92915050565b600060e082019050611080600083018a610f54565b81810360208301526110928189610d43565b905081810360408301526110a68188610d43565b90506110b56060830187610f54565b6110c26080830186610cfb565b6110cf60a0830185610c68565b6110dc60c0830184610f54565b98975050505050505050565b6000604051905081810181811067ffffffffffffffff8211171561110f5761110e611312565b5b8060405250919050565b600067ffffffffffffffff82111561113457611133611312565b5b601f19601f8301169050602081019050919050565b6000819050602082019050919050565b600081519050919050565b600081519050919050565b6000602082019050919050565b600082825260208201905092915050565b600082825260208201905092915050565b600082825260208201905092915050565b60006111ba826111cd565b9050919050565b60008115159050919050565b600073ffffffffffffffffffffffffffffffffffffffff82169050919050565b6000819050919050565b82818337600083830152505050565b60005b83811015611224578082015181840152602081019050611209565b83811115611233576000848401525b50505050565b6000600282049050600182168061125157607f821691505b60208210811415611265576112646112e3565b5b50919050565b6000611276826111ed565b91507fffffffffffffffffffffffffffffffffffffffffffffffffffffffffffffffff8214156112a9576112a86112b4565b5b600182019050919050565b7f4e487b7100000000000000000000000000000000000000000000000000000000600052601160045260246000fd5b7f4e487b7100000000000000000000000000000000000000000000000000000000600052602260045260246000fd5b7f4e487b7100000000000000000000000000000000000000000000000000000000600052604160045260246000fd5b6000601f19601f8301169050919050565b61135b816111ed565b811461136657600080fd5b5056fea2646970667358221220fe5e72c38d2fa84cf8ffc630cdf3f67b233928c0dc5a0889e3973ba3889e5a2864736f6c63430008000033",
  "immutableReferences": {},
  "source": "// SPDX-License-Identifier: MIT\r\npragma solidity ^0.8.0;\r\n\r\ncontract Government {\r\n    address public government;\r\n    uint public tenderCounter;\r\n    \r\n    struct Tender {\r\n        uint id;\r\n        string location;\r\n        string description;\r\n        uint deadline;\r\n        bool isOpen;\r\n        address winningBidder;\r\n        uint winningBidAmount;\r\n    }\r\n    \r\n    mapping(uint => Tender) public tenders;  \r\n    event TenderCreated(uint indexed id, string location, uint deadline);\r\n    event TenderClosed(uint indexed id);\r\n    event BidPlaced(uint indexed tenderId, address indexed bidder, uint amount);\r\n    event BidAccepted(uint indexed tenderId, address indexed winner, uint amount);\r\n    \r\n    modifier onlyGovernment() {\r\n        require(msg.sender == government, \"Only government can perform this action\");\r\n        _;\r\n    }\r\n    \r\n    constructor() {\r\n        government = msg.sender;\r\n    }\r\n    \r\n    function createTender(\r\n        string memory _location,\r\n        string memory _description,\r\n        uint _deadline\r\n    ) public onlyGovernment {\r\n        require(_deadline > block.timestamp, \"Deadline must be in the future\");\r\n        \r\n        tenderCounter++;\r\n        tenders[tenderCounter] = Tender({\r\n            id: tenderCounter,\r\n            location: _location,\r\n            description: _description,\r\n            deadline: _deadline,\r\n            isOpen: true,\r\n            winningBidder: address(0),\r\n            winningBidAmount: 0\r\n        });\r\n        \r\n        emit TenderCreated(tenderCounter, _location, _deadline);\r\n    }\r\n    \r\n    function closeTender(uint _id) public onlyGovernment {\r\n        require(tenders[_id].isOpen, \"Tender already closed\");\r\n        require(block.timestamp >= tenders[_id].deadline, \"Deadline not reached yet\");\r\n        \r\n        tenders[_id].isOpen = false;\r\n        emit TenderClosed(_id);\r\n    }\r\n    \r\n   \r\n    function getActiveTenders() public view returns (Tender[] memory) {\r\n        uint count = 0;\r\n        for (uint i = 1; i <= tenderCounter; i++) {\r\n            if (tenders[i].isOpen) {\r\n                count++;\r\n            }\r\n        }\r\n        \r\n        Tender[] memory activeTenders = new Tender[](count);\r\n        uint index = 0;\r\n        for (uint i = 1; i <= tenderCounter; i++) {\r\n            if (tenders[i].isOpen) {\r\n                activeTenders[index] = tenders[i];\r\n                index++;\r\n            }\r\n        }\r\n        \r\n        return activeTenders;\r\n    }\r\n    }",
  "sourcePath": "C:\\Users\\msi\\app_drone\\contracts\\Government.sol",
  "compiler": {
    "name": "solc",
    "version": "0.8.0+commit.c7dfd78e.Emscripten.clang"
  },
  "schemaVersion": "3.4.16",
  "updatedAt": "2025-05-07T16:00:08.733Z",
  "devdoc": {
    "kind": "dev",
    "methods": {},
    "version": 1
  },
  "userdoc": {
    "kind": "user",
    "methods": {},
    "version": 1
  }
}