{
  "contractName": "LivestockManager",
  "abi": [
    {
      "anonymous": false,
      "inputs": [
        {
          "indexed": false,
          "internalType": "string",
          "name": "id",
          "type": "string"
        },
        {
          "indexed": false,
          "internalType": "string",
          "name": "breed",
          "type": "string"
        }
      ],
      "name": "CowAdded",
      "type": "event"
    },
    {
      "inputs": [
        {
          "internalType": "uint256",
          "name": "",
          "type": "uint256"
        }
      ],
      "name": "cows",
      "outputs": [
        {
          "internalType": "string",
          "name": "id",
          "type": "string"
        },
        {
          "internalType": "string",
          "name": "breed",
          "type": "string"
        },
        {
          "internalType": "uint256",
          "name": "age",
          "type": "uint256"
        },
        {
          "internalType": "uint256",
          "name": "weight",
          "type": "uint256"
        },
        {
          "internalType": "string",
          "name": "gender",
          "type": "string"
        },
        {
          "internalType": "string",
          "name": "color",
          "type": "string"
        }
      ],
      "stateMutability": "view",
      "type": "function",
      "constant": true
    },
    {
      "inputs": [
        {
          "internalType": "string",
          "name": "_id",
          "type": "string"
        },
        {
          "internalType": "string",
          "name": "_breed",
          "type": "string"
        },
        {
          "internalType": "uint256",
          "name": "_age",
          "type": "uint256"
        },
        {
          "internalType": "uint256",
          "name": "_weight",
          "type": "uint256"
        },
        {
          "internalType": "string",
          "name": "_gender",
          "type": "string"
        },
        {
          "internalType": "string",
          "name": "_color",
          "type": "string"
        }
      ],
      "name": "addCow",
      "outputs": [],
      "stateMutability": "nonpayable",
      "type": "function"
    },
    {
      "inputs": [
        {
          "internalType": "uint256",
          "name": "index",
          "type": "uint256"
        }
      ],
      "name": "getCow",
      "outputs": [
        {
          "components": [
            {
              "internalType": "string",
              "name": "id",
              "type": "string"
            },
            {
              "internalType": "string",
              "name": "breed",
              "type": "string"
            },
            {
              "internalType": "uint256",
              "name": "age",
              "type": "uint256"
            },
            {
              "internalType": "uint256",
              "name": "weight",
              "type": "uint256"
            },
            {
              "internalType": "string",
              "name": "gender",
              "type": "string"
            },
            {
              "internalType": "string",
              "name": "color",
              "type": "string"
            }
          ],
          "internalType": "struct LivestockManager.Cow",
          "name": "",
          "type": "tuple"
        }
      ],
      "stateMutability": "view",
      "type": "function",
      "constant": true
    },
    {
      "inputs": [],
      "name": "getCowsCount",
      "outputs": [
        {
          "internalType": "uint256",
          "name": "",
          "type": "uint256"
        }
      ],
      "stateMutability": "view",
      "type": "function",
      "constant": true
    }
  ],
  "bytecode": "0x608060405234801561001057600080fd5b50610d98806100206000396000f3fe608060405234801561001057600080fd5b506004361061004c5760003560e01c806334df9b60146100515780633b928b7b14610081578063f63941ca146100b6578063f66e91d5146100d4575b600080fd5b61006b60048036038101906100669190610988565b6100f0565b6040516100789190610b93565b60405180910390f35b61009b60048036038101906100969190610988565b6103ae565b6040516100ad96959493929190610b16565b60405180910390f35b6100be61061a565b6040516100cb9190610bb5565b60405180910390f35b6100ee60048036038101906100e9919061089f565b610626565b005b6100f8610749565b60008281548110610132577f4e487b7100000000000000000000000000000000000000000000000000000000600052603260045260246000fd5b90600052602060002090600602016040518060c001604052908160008201805461015b90610caa565b80601f016020809104026020016040519081016040528092919081815260200182805461018790610caa565b80156101d45780601f106101a9576101008083540402835291602001916101d4565b820191906000526020600020905b8154815290600101906020018083116101b757829003601f168201915b505050505081526020016001820180546101ed90610caa565b80601f016020809104026020016040519081016040528092919081815260200182805461021990610caa565b80156102665780601f1061023b57610100808354040283529160200191610266565b820191906000526020600020905b81548152906001019060200180831161024957829003601f168201915b50505050508152602001600282015481526020016003820154815260200160048201805461029390610caa565b80601f01602080910402602001604051908101604052809291908181526020018280546102bf90610caa565b801561030c5780601f106102e15761010080835404028352916020019161030c565b820191906000526020600020905b8154815290600101906020018083116102ef57829003601f168201915b5050505050815260200160058201805461032590610caa565b80601f016020809104026020016040519081016040528092919081815260200182805461035190610caa565b801561039e5780601f106103735761010080835404028352916020019161039e565b820191906000526020600020905b81548152906001019060200180831161038157829003601f168201915b5050505050815250509050919050565b600081815481106103be57600080fd5b90600052602060002090600602016000915090508060000180546103e190610caa565b80601f016020809104026020016040519081016040528092919081815260200182805461040d90610caa565b801561045a5780601f1061042f5761010080835404028352916020019161045a565b820191906000526020600020905b81548152906001019060200180831161043d57829003601f168201915b50505050509080600101805461046f90610caa565b80601f016020809104026020016040519081016040528092919081815260200182805461049b90610caa565b80156104e85780601f106104bd576101008083540402835291602001916104e8565b820191906000526020600020905b8154815290600101906020018083116104cb57829003601f168201915b50505050509080600201549080600301549080600401805461050990610caa565b80601f016020809104026020016040519081016040528092919081815260200182805461053590610caa565b80156105825780601f1061055757610100808354040283529160200191610582565b820191906000526020600020905b81548152906001019060200180831161056557829003601f168201915b50505050509080600501805461059790610caa565b80601f01602080910402602001604051908101604052809291908181526020018280546105c390610caa565b80156106105780601f106105e557610100808354040283529160200191610610565b820191906000526020600020905b8154815290600101906020018083116105f357829003601f168201915b5050505050905086565b60008080549050905090565b60006040518060c00160405280888152602001878152602001868152602001858152602001848152602001838152509080600181540180825580915050600190039060005260206000209060060201600090919091909150600082015181600001908051906020019061069a92919061077f565b5060208201518160010190805190602001906106b792919061077f565b50604082015181600201556060820151816003015560808201518160040190805190602001906106e892919061077f565b5060a082015181600501908051906020019061070592919061077f565b5050507f45fc99f2fc6219a148064052e254da3651739a8fd30ae500a2eded20b95ea9548686604051610739929190610adf565b60405180910390a1505050505050565b6040518060c001604052806060815260200160608152602001600081526020016000815260200160608152602001606081525090565b82805461078b90610caa565b90600052602060002090601f0160209004810192826107ad57600085556107f4565b82601f106107c657805160ff19168380011785556107f4565b828001600101855582156107f4579182015b828111156107f35782518255916020019190600101906107d8565b5b5090506108019190610805565b5090565b5b8082111561081e576000816000905550600101610806565b5090565b600061083561083084610c01565b610bd0565b90508281526020810184848401111561084d57600080fd5b610858848285610c68565b509392505050565b600082601f83011261087157600080fd5b8135610881848260208601610822565b91505092915050565b60008135905061089981610d4b565b92915050565b60008060008060008060c087890312156108b857600080fd5b600087013567ffffffffffffffff8111156108d257600080fd5b6108de89828a01610860565b965050602087013567ffffffffffffffff8111156108fb57600080fd5b61090789828a01610860565b955050604061091889828a0161088a565b945050606061092989828a0161088a565b935050608087013567ffffffffffffffff81111561094657600080fd5b61095289828a01610860565b92505060a087013567ffffffffffffffff81111561096f57600080fd5b61097b89828a01610860565b9150509295509295509295565b60006020828403121561099a57600080fd5b60006109a88482850161088a565b91505092915050565b60006109bc82610c31565b6109c68185610c3c565b93506109d6818560208601610c77565b6109df81610d3a565b840191505092915050565b60006109f582610c31565b6109ff8185610c4d565b9350610a0f818560208601610c77565b610a1881610d3a565b840191505092915050565b600060c0830160008301518482036000860152610a4082826109b1565b91505060208301518482036020860152610a5a82826109b1565b9150506040830151610a6f6040860182610ac1565b506060830151610a826060860182610ac1565b5060808301518482036080860152610a9a82826109b1565b91505060a083015184820360a0860152610ab482826109b1565b9150508091505092915050565b610aca81610c5e565b82525050565b610ad981610c5e565b82525050565b60006040820190508181036000830152610af981856109ea565b90508181036020830152610b0d81846109ea565b90509392505050565b600060c0820190508181036000830152610b3081896109ea565b90508181036020830152610b4481886109ea565b9050610b536040830187610ad0565b610b606060830186610ad0565b8181036080830152610b7281856109ea565b905081810360a0830152610b8681846109ea565b9050979650505050505050565b60006020820190508181036000830152610bad8184610a23565b905092915050565b6000602082019050610bca6000830184610ad0565b92915050565b6000604051905081810181811067ffffffffffffffff82111715610bf757610bf6610d0b565b5b8060405250919050565b600067ffffffffffffffff821115610c1c57610c1b610d0b565b5b601f19601f8301169050602081019050919050565b600081519050919050565b600082825260208201905092915050565b600082825260208201905092915050565b6000819050919050565b82818337600083830152505050565b60005b83811015610c95578082015181840152602081019050610c7a565b83811115610ca4576000848401525b50505050565b60006002820490506001821680610cc257607f821691505b60208210811415610cd657610cd5610cdc565b5b50919050565b7f4e487b7100000000000000000000000000000000000000000000000000000000600052602260045260246000fd5b7f4e487b7100000000000000000000000000000000000000000000000000000000600052604160045260246000fd5b6000601f19601f8301169050919050565b610d5481610c5e565b8114610d5f57600080fd5b5056fea26469706673582212204334d95dcb7489313414bf2fd2436440f913dffdf57b5756049399f55c704bf964736f6c63430008000033",
  "immutableReferences": {},
  "source": "// SPDX-License-Identifier: MIT\r\npragma solidity ^0.8.0;\r\n\r\ncontract LivestockManager {\r\n    struct Cow {\r\n        string id;\r\n        string breed;\r\n        uint age;\r\n        uint weight;\r\n        string gender;\r\n        string color;\r\n    }\r\n\r\n    Cow[] public cows;\r\n\r\n    event CowAdded(string id, string breed);\r\n\r\n    function addCow(\r\n        string memory _id,\r\n        string memory _breed,\r\n        uint _age,\r\n        uint _weight,\r\n        string memory _gender,\r\n        string memory _color\r\n    ) public {\r\n        cows.push(Cow(_id, _breed, _age, _weight, _gender, _color));\r\n        emit CowAdded(_id, _breed);\r\n    }\r\n\r\n    function getCow(uint index) public view returns (Cow memory) {\r\n        return cows[index];\r\n    }\r\n\r\n    function getCowsCount() public view returns (uint) {\r\n        return cows.length;\r\n    }\r\n}\r\n",
  "sourcePath": "C:\\Users\\msi\\app_drone\\contracts\\LivestockManager.sol",
  "compiler": {
    "name": "solc",
    "version": "0.8.0+commit.c7dfd78e.Emscripten.clang"
  },
  "schemaVersion": "3.4.16",
  "updatedAt": "2025-05-07T16:00:11.097Z",
  "networkType": "ethereum",
  "devdoc": {
    "kind": "dev",
    "methods": {},
    "version": 1
  },
  "userdoc": {
    "kind": "user",
    "methods": {},
    "version": 1
  }
}