{
  "contractName": "MissionManager",
  "abi": [
    {
      "inputs": [
        {
          "internalType": "address",
          "name": "_droneOperatorContract",
          "type": "address"
        }
      ],
      "stateMutability": "nonpayable",
      "type": "constructor"
    },
    {
      "anonymous": false,
      "inputs": [
        {
          "indexed": true,
          "internalType": "uint256",
          "name": "tenderId",
          "type": "uint256"
        },
        {
          "indexed": true,
          "internalType": "address",
          "name": "operator",
          "type": "address"
        }
      ],
      "name": "ExternalMissionAssigned",
      "type": "event"
    },
    {
      "inputs": [],
      "name": "droneOperatorContract",
      "outputs": [
        {
          "internalType": "contract IDroneOperator",
          "name": "",
          "type": "address"
        }
      ],
      "stateMutability": "view",
      "type": "function"
    },
    {
      "inputs": [],
      "name": "government",
      "outputs": [
        {
          "internalType": "address",
          "name": "",
          "type": "address"
        }
      ],
      "stateMutability": "view",
      "type": "function"
    },
    {
      "inputs": [
        {
          "internalType": "uint256",
          "name": "_tenderId",
          "type": "uint256"
        },
        {
          "internalType": "address",
          "name": "_operator",
          "type": "address"
        }
      ],
      "name": "assignMissionExternally",
      "outputs": [],
      "stateMutability": "nonpayable",
      "type": "function"
    }
  ],
  "bytecode": "0x608060405234801561001057600080fd5b506040516105e93803806105e9833981810160405281019061003291906100ce565b336000806101000a81548173ffffffffffffffffffffffffffffffffffffffff021916908373ffffffffffffffffffffffffffffffffffffffff16021790555080600160006101000a81548173ffffffffffffffffffffffffffffffffffffffff021916908373ffffffffffffffffffffffffffffffffffffffff16021790555050610140565b6000815190506100c881610129565b92915050565b6000602082840312156100e057600080fd5b60006100ee848285016100b9565b91505092915050565b600061010282610109565b9050919050565b600073ffffffffffffffffffffffffffffffffffffffff82169050919050565b610132816100f7565b811461013d57600080fd5b50565b61049a8061014f6000396000f3fe608060405234801561001057600080fd5b50600436106100415760003560e01c80632672f52614610046578063bcd7f51a14610064578063e9e90e2714610082575b600080fd5b61004e61009e565b60405161005b9190610346565b60405180910390f35b61006c6100c2565b6040516100799190610361565b60405180910390f35b61009c60048036038101906100979190610277565b6100e8565b005b60008054906101000a900473ffffffffffffffffffffffffffffffffffffffff1681565b600160009054906101000a900473ffffffffffffffffffffffffffffffffffffffff1681565b60008054906101000a900473ffffffffffffffffffffffffffffffffffffffff1673ffffffffffffffffffffffffffffffffffffffff163373ffffffffffffffffffffffffffffffffffffffff1614610176576040517f08c379a000000000000000000000000000000000000000000000000000000000815260040161016d9061037c565b60405180910390fd5b600160009054906101000a900473ffffffffffffffffffffffffffffffffffffffff1673ffffffffffffffffffffffffffffffffffffffff1663402a316183836040518363ffffffff1660e01b81526004016101d392919061039c565b600060405180830381600087803b1580156101ed57600080fd5b505af1158015610201573d6000803e3d6000fd5b505050508073ffffffffffffffffffffffffffffffffffffffff16827f6db4a41076fd630cabebabf9b9bb52f97d1d86c194e1de3a87341f4f3493926e60405160405180910390a35050565b60008135905061025c81610436565b92915050565b6000813590506102718161044d565b92915050565b6000806040838503121561028a57600080fd5b600061029885828601610262565b92505060206102a98582860161024d565b9150509250929050565b6102bc816103d6565b82525050565b6102cb81610412565b82525050565b60006102de6023836103c5565b91507f4f6e6c7920676f7665726e6d656e742063616e2061737369676e206d6973736960008301527f6f6e7300000000000000000000000000000000000000000000000000000000006020830152604082019050919050565b61034081610408565b82525050565b600060208201905061035b60008301846102b3565b92915050565b600060208201905061037660008301846102c2565b92915050565b60006020820190508181036000830152610395816102d1565b9050919050565b60006040820190506103b16000830185610337565b6103be60208301846102b3565b9392505050565b600082825260208201905092915050565b60006103e1826103e8565b9050919050565b600073ffffffffffffffffffffffffffffffffffffffff82169050919050565b6000819050919050565b600061041d82610424565b9050919050565b600061042f826103e8565b9050919050565b61043f816103d6565b811461044a57600080fd5b50565b61045681610408565b811461046157600080fd5b5056fea2646970667358221220fa73e2cfa5489dfa408c55b107b1fce68d48df561df6589831b93e783c27b85564736f6c63430008000033",
  "immutableReferences": {},
  "source": "// SPDX-License-Identifier: MIT\r\npragma solidity ^0.8.0;\r\n\r\ninterface IDroneOperator {\r\n    function assignMission(uint _tenderId, address _operator) external;\r\n}\r\n\r\ncontract MissionManager {\r\n    address public government;\r\n    IDroneOperator public droneOperatorContract;\r\n\r\n    event ExternalMissionAssigned(uint indexed tenderId, address indexed operator);\r\n\r\n    modifier onlyGovernment() {\r\n        require(msg.sender == government, \"Only government can assign missions\");\r\n        _;\r\n    }\r\n\r\n    constructor(address _droneOperatorContract) {\r\n        government = msg.sender;\r\n        droneOperatorContract = IDroneOperator(_droneOperatorContract);\r\n    }\r\n\r\n    function assignMissionExternally(uint _tenderId, address _operator) external onlyGovernment {\r\n        droneOperatorContract.assignMission(_tenderId, _operator);\r\n        emit ExternalMissionAssigned(_tenderId, _operator);\r\n    }\r\n}\r\n",
  "sourcePath": "C:\\Users\\msi\\app_drone\\contracts\\MissionManager.sol",
  "compiler": {
    "name": "solc",
    "version": "0.8.0+commit.c7dfd78e.Emscripten.clang"
  },
  "schemaVersion": "3.4.16",
  "updatedAt": "2025-04-30T20:03:19.571Z",
  "devdoc": {
    "kind": "dev",
    "methods": {},
    "version": 1
  },
  "userdoc": {
    "kind": "user",
    "methods": {},
    "version": 1
  }
}